{"contracts/BookNFT.sol":{"BookNFT":{"abi":[{"inputs":[],"stateMutability":"nonpayable","type":"constructor"},{"inputs":[],"name":"ERC721EnumerableForbiddenBatchMint","type":"error"},{"inputs":[{"internalType":"address","name":"sender","type":"address"},{"internalType":"uint256","name":"tokenId","type":"uint256"},{"internalType":"address","name":"owner","type":"address"}],"name":"ERC721IncorrectOwner","type":"error"},{"inputs":[{"internalType":"address","name":"operator","type":"address"},{"internalType":"uint256","name":"tokenId","type":"uint256"}],"name":"ERC721InsufficientApproval","type":"error"},{"inputs":[{"internalType":"address","name":"approver","type":"address"}],"name":"ERC721InvalidApprover","type":"error"},{"inputs":[{"internalType":"address","name":"operator","type":"address"}],"name":"ERC721InvalidOperator","type":"error"},{"inputs":[{"internalType":"address","name":"owner","type":"address"}],"name":"ERC721InvalidOwner","type":"error"},{"inputs":[{"internalType":"address","name":"receiver","type":"address"}],"name":"ERC721InvalidReceiver","type":"error"},{"inputs":[{"internalType":"address","name":"sender","type":"address"}],"name":"ERC721InvalidSender","type":"error"},{"inputs":[{"internalType":"uint256","name":"tokenId","type":"uint256"}],"name":"ERC721NonexistentToken","type":"error"},{"inputs":[{"internalType":"address","name":"owner","type":"address"},{"internalType":"uint256","name":"index","type":"uint256"}],"name":"ERC721OutOfBoundsIndex","type":"error"},{"inputs":[{"internalType":"address","name":"owner","type":"address"}],"name":"OwnableInvalidOwner","type":"error"},{"inputs":[{"internalType":"address","name":"account","type":"address"}],"name":"OwnableUnauthorizedAccount","type":"error"},{"inputs":[{"internalType":"uint256","name":"value","type":"uint256"},{"internalType":"uint256","name":"length","type":"uint256"}],"name":"StringsInsufficientHexLength","type":"error"},{"anonymous":false,"inputs":[{"indexed":true,"internalType":"address","name":"owner","type":"address"},{"indexed":true,"internalType":"address","name":"approved","type":"address"},{"indexed":true,"internalType":"uint256","name":"tokenId","type":"uint256"}],"name":"Approval","type":"event"},{"anonymous":false,"inputs":[{"indexed":true,"internalType":"address","name":"owner","type":"address"},{"indexed":true,"internalType":"address","name":"operator","type":"address"},{"indexed":false,"internalType":"bool","name":"approved","type":"bool"}],"name":"ApprovalForAll","type":"event"},{"anonymous":false,"inputs":[{"indexed":true,"internalType":"address","name":"previousOwner","type":"address"},{"indexed":true,"internalType":"address","name":"newOwner","type":"address"}],"name":"OwnershipTransferred","type":"event"},{"anonymous":false,"inputs":[{"indexed":true,"internalType":"address","name":"from","type":"address"},{"indexed":true,"internalType":"address","name":"to","type":"address"},{"indexed":true,"internalType":"uint256","name":"tokenId","type":"uint256"}],"name":"Transfer","type":"event"},{"inputs":[{"internalType":"address","name":"to","type":"address"},{"internalType":"uint256","name":"tokenId","type":"uint256"}],"name":"approve","outputs":[],"stateMutability":"nonpayable","type":"function"},{"inputs":[{"internalType":"address","name":"owner","type":"address"}],"name":"balanceOf","outputs":[{"internalType":"uint256","name":"","type":"uint256"}],"stateMutability":"view","type":"function"},{"inputs":[{"internalType":"uint256","name":"tokenId","type":"uint256"}],"name":"getApproved","outputs":[{"internalType":"address","name":"","type":"address"}],"stateMutability":"view","type":"function"},{"inputs":[{"internalType":"uint256","name":"tokenId","type":"uint256"}],"name":"getBook","outputs":[{"components":[{"internalType":"string","name":"title","type":"string"},{"internalType":"string","name":"author","type":"string"},{"internalType":"uint256","name":"pages","type":"uint256"},{"internalType":"string","name":"coverUrl","type":"string"},{"internalType":"address","name":"reader","type":"address"},{"internalType":"uint256","name":"timestamp","type":"uint256"}],"internalType":"struct BookNFT.Book","name":"","type":"tuple"}],"stateMutability":"view","type":"function"},{"inputs":[{"internalType":"address","name":"owner","type":"address"},{"internalType":"address","name":"operator","type":"address"}],"name":"isApprovedForAll","outputs":[{"internalType":"bool","name":"","type":"bool"}],"stateMutability":"view","type":"function"},{"inputs":[{"internalType":"string","name":"title","type":"string"},{"internalType":"string","name":"author","type":"string"},{"internalType":"uint256","name":"pages","type":"uint256"},{"internalType":"string","name":"coverUrl","type":"string"}],"name":"mintBook","outputs":[{"internalType":"uint256","name":"tokenId","type":"uint256"}],"stateMutability":"nonpayable","type":"function"},{"inputs":[],"name":"name","outputs":[{"internalType":"string","name":"","type":"string"}],"stateMutability":"view","type":"function"},{"inputs":[],"name":"owner","outputs":[{"internalType":"address","name":"","type":"address"}],"stateMutability":"view","type":"function"},{"inputs":[{"internalType":"uint256","name":"tokenId","type":"uint256"}],"name":"ownerOf","outputs":[{"internalType":"address","name":"","type":"address"}],"stateMutability":"view","type":"function"},{"inputs":[],"name":"renounceOwnership","outputs":[],"stateMutability":"nonpayable","type":"function"},{"inputs":[{"internalType":"address","name":"from","type":"address"},{"internalType":"address","name":"to","type":"address"},{"internalType":"uint256","name":"tokenId","type":"uint256"}],"name":"safeTransferFrom","outputs":[],"stateMutability":"nonpayable","type":"function"},{"inputs":[{"internalType":"address","name":"from","type":"address"},{"internalType":"address","name":"to","type":"address"},{"internalType":"uint256","name":"tokenId","type":"uint256"},{"internalType":"bytes","name":"data","type":"bytes"}],"name":"safeTransferFrom","outputs":[],"stateMutability":"nonpayable","type":"function"},{"inputs":[{"internalType":"address","name":"operator","type":"address"},{"internalType":"bool","name":"approved","type":"bool"}],"name":"setApprovalForAll","outputs":[],"stateMutability":"nonpayable","type":"function"},{"inputs":[{"internalType":"bytes4","name":"interfaceId","type":"bytes4"}],"name":"supportsInterface","outputs":[{"internalType":"bool","name":"","type":"bool"}],"stateMutability":"view","type":"function"},{"inputs":[],"name":"symbol","outputs":[{"internalType":"string","name":"","type":"string"}],"stateMutability":"view","type":"function"},{"inputs":[{"internalType":"uint256","name":"index","type":"uint256"}],"name":"tokenByIndex","outputs":[{"internalType":"uint256","name":"","type":"uint256"}],"stateMutability":"view","type":"function"},{"inputs":[{"internalType":"address","name":"owner","type":"address"},{"internalType":"uint256","name":"index","type":"uint256"}],"name":"tokenOfOwnerByIndex","outputs":[{"internalType":"uint256","name":"","type":"uint256"}],"stateMutability":"view","type":"function"},{"inputs":[{"internalType":"uint256","name":"tokenId","type":"uint256"}],"name":"tokenURI","outputs":[{"internalType":"string","name":"","type":"string"}],"stateMutability":"view","type":"function"},{"inputs":[{"internalType":"address","name":"owner","type":"address"}],"name":"tokensOfOwner","outputs":[{"internalType":"uint256[]","name":"","type":"uint256[]"}],"stateMutability":"view","type":"function"},{"inputs":[],"name":"totalSupply","outputs":[{"internalType":"uint256","name":"","type":"uint256"}],"stateMutability":"view","type":"function"},{"inputs":[{"internalType":"address","name":"from","type":"address"},{"internalType":"address","name":"to","type":"address"},{"internalType":"uint256","name":"tokenId","type":"uint256"}],"name":"transferFrom","outputs":[],"stateMutability":"nonpayable","type":"function"},{"inputs":[{"internalType":"address","name":"newOwner","type":"address"}],"name":"transferOwnership","outputs":[],"stateMutability":"nonpayable","type":"function"}],"evm":{"bytecode":{"linkReferences":{},"object":"6080346200039a576001600160401b0390604081810183811183821017620003845781526007825260209266109bdbdad3919560ca1b84840152815190828201828110828211176200038457835260049182815263424f4f4b60e01b868201528451908282116200036f576000968754926001978885811c9516801562000364575b8386101462000351578190601f95868111620002fe575b5083908683116001146200029a578b926200028e575b5050600019600383901b1c191690881b1788555b81519384116200027b5786548781811c9116801562000270575b828210146200025d57908184869594931162000206575b50809284116001146200019e5750879262000192575b5050600019600383901b1c191690841b1783555b33156200017d5750600a8054336001600160a01b03198216811790925591519390916001600160a01b0316907f8be0079c531659141344cd1fd0a4f28419497f9722a3daafe3b4186f6b6457e09080a3600c556123eb9081620003a08239f35b836024925191631e4fbdf760e01b8352820152fd5b01519050388062000109565b9190879450601f198416858a52838a20938a905b828210620001ec5750508411620001d2575b505050811b0183556200011d565b015160001960f88460031b161c19169055388080620001c4565b8484015186558a97909501949384019390810190620001b2565b90919293508789528189208480870160051c82019284881062000253575b9187968b92969594930160051c01915b82811062000244575050620000f3565b8b81558796508a910162000234565b9250819262000224565b634e487b7160e01b895260228652602489fd5b90607f1690620000dc565b634e487b7160e01b885260418552602488fd5b015190503880620000ae565b8b8052848c208b94509190601f1984168d5b87828210620002e75750508411620002cd575b505050811b018855620000c2565b015160001960f88460031b161c19169055388080620002bf565b8385015186558e97909501949384019301620002ac565b9091508a8052838b208680850160051c82019286861062000347575b918c91869594930160051c01915b8281106200033857505062000098565b8d81558594508c910162000328565b925081926200031a565b634e487b7160e01b8a526022875260248afd5b94607f169462000081565b604184634e487b7160e01b6000525260246000fd5b634e487b7160e01b600052604160045260246000fd5b600080fdfe608080604052600436101561001357600080fd5b60003560e01c90816301ffc9a7146116ed5750806306fdde031461164a578063081812fc1461160c578063095ea7b31461152557806318160ddd1461150757806323b872dd146114f05780632f745c59146114c957806342842e0e1461149b5780634f6ccce7146114455780636352211e1461141557806370a08231146113ea578063715018a61461138d5780638462151c146112ac5780638da5cb5b1461128357806395d89b41146111a4578063a139d3d01461093e578063a22cb46514610899578063b88d4fde1461082c578063c87b56dd1461032d578063e0ff5b8b146101f5578063e985e9c51461019f5763f2fde38b1461011157600080fd5b3461019a57602036600319011261019a5761012a6117ba565b6101326118e2565b6001600160a01b0390811690811561018157600a54826001600160601b0360a01b821617600a55167f8be0079c531659141344cd1fd0a4f28419497f9722a3daafe3b4186f6b6457e0600080a3005b604051631e4fbdf760e01b815260006004820152602490fd5b600080fd5b3461019a57604036600319011261019a576101b86117ba565b6101c06117d0565b9060018060a01b03809116600052600560205260406000209116600052602052602060ff604060002054166040519015158152f35b3461019a5760208060031936011261019a57600435906040516102178161181b565b600060a0606092838152838582015282604082015283808201528260808201520152826000526002825260018060a01b039261025b84604060002054161515611ee8565b600052600b8252604060002090604051936102758561181b565b61027e83611981565b855261031b61028f60018501611981565b858701908152600285015490604088019182526102ae60038701611981565b8589019081526005856004890154169760808b0198895201549560a08a019687526103056102ef8a60c06040519d8e9d8e5251918d015260e08c0190611795565b935193601f1994858c83030160408d0152611795565b9351908901525190878303016080880152611795565b92511660a08401525160c08301520390f35b3461019a5760208060031936011261019a5760043560008181526002835260409020546001600160a01b03906103669082161515611ee8565b81600052600b8352604060002091604051926103818461181b565b61038a81611981565b845261039860018201611981565b9185850192835260028201549160408601928352600381016103b990611981565b9360608701948552856004830154169160808801928352600501549260a088019384526103e590612069565b60405180918a820165426f6f6b202360d01b9052805190818c6026850192019161040e92611772565b8101036006810182526026016104249082611851565b61042d906122b1565b958083511661043b906121ac565b60405180918b82017102137b7b59031b7b63632b1ba32b210313c960751b9052805190818d6032850192019161047092611772565b8101036012810182526032016104869082611851565b61048f906122b1565b955161049a906122b1565b97516104a5906122b1565b91516104b0906122b1565b94516104bb90612069565b9251166104c7906121ac565b92516104d290612069565b946040519788978a8901607b60f81b905267113730b6b2911d1160c11b60218a0152805190818c60298c0192019161050992611772565b88019161088b60f21b928360298201526e113232b9b1b934b83a34b7b7111d1160891b602b820152815191828d603a840192019161054692611772565b0182603a820152681134b6b0b3b2911d1160b91b603c820152815191828c6045840192019161057492611772565b019060458201526d2261747472696275746573223a5b60901b6047820152605581017f7b2274726169745f74797065223a225469746c65222c2276616c7565223a22009052815191828a607484019201916105ce92611772565b019262089f4b60ea1b93846074820152607781017f7b2274726169745f74797065223a22417574686f72222c2276616c7565223a229052815191828a6097840192019161061a92611772565b01836097820152609a81017f7b2274726169745f74797065223a225061676573222c2276616c7565223a22009052815191828960b9840192019161065d92611772565b018260b982015260bc81017f7b2274726169745f74797065223a22526561646572222c2276616c7565223a229052815191828860dc84019201916106a092611772565b019060dc82015260df81017f7b22646973706c61795f74797065223a2264617465222c2274726169745f74799052743832911d1126b4b73a32b21116113b30b63ab2911d60591b60ff82015281519061011492828785840192019161070492611772565b0190607d60f81b80918301526101158201605d60f81b90526101168201520360f781018252610117016107379082611851565b60405160608101918183106001600160401b03841117610816576107ac92604052604082527f4142434445464748494a4b4c4d4e4f505152535455565758595a616263646566848301527f6768696a6b6c6d6e6f707172737475767778797a303132333435363738392b2f6040830152611f71565b906107fe603d60405180947f646174613a6170706c69636174696f6e2f6a736f6e3b6261736536342c000000858301526107ee81518092878686019101611772565b810103601d810185520183611851565b610812604051928284938452830190611795565b0390f35b634e487b7160e01b600052604160045260246000fd5b3461019a57608036600319011261019a576108456117ba565b61084d6117d0565b90604435606435926001600160401b03841161019a573660238501121561019a5761088561089794369060248160040135910161188d565b92610891838383611a27565b33611d8b565b005b3461019a57604036600319011261019a576108b26117ba565b6024359081151580920361019a576001600160a01b031690811561092557336000526005602052604060002082600052602052604060002060ff1981541660ff83161790556040519081527f17307eab39ab6107e8899845ad3d59bd9653f200f220920489ca2b5937696c3160203392a3005b604051630b61174360e31b815260048101839052602490fd5b3461019a57608036600319011261019a576004356001600160401b03811161019a5761096e9036906004016118c4565b6024356001600160401b03811161019a5761098d9036906004016118c4565b906064356001600160401b03811161019a576109ad9036906004016118c4565b81511561116e5782511561113757604435156110fe57600c54926109d084611ed9565b600c556040516109df81611836565b6000815233156110e5576000858152600260205260409020546001600160a01b0316806110ae575b3360005260036020526040600020600181540190558560005260026020526040600020336001600160601b0360a01b8254161790558533827fddf252ad1be2c89b69c2b068fc378daa952ba7f163c4a11628f55a4df523b3ef600080a4806110275760085486600052600960205280604060002055600160401b8110156108165786610a9c826001610ab59401600855611d54565b90919082549060031b91821b91600019901b1916179055565b338103610fc5575b610fac57333b610e96575b5060405192610ad68461181b565b83526020830152604435604083015260608201523360808201524260a082015281600052600b60205260406000209080519283516001600160401b03811161081657610b228454611947565b601f8111610e52575b506020601f8211600114610de9578192939495600092610dde575b50508160011b916000199060031b1c19161783555b60208201519283516001600160401b03811161081657610b7e6001830154611947565b601f8111610d97575b506020601f8211600114610d28578192939495600092610d1d575b50508160011b916000199060031b1c19161760018201555b6040830151600282015560608301519283516001600160401b03811161081657610be76003840154611947565b94601f8611610cd6575b602095508590601f8311600114610c635791806005949260a094600092610c58575b50508160011b916000199060031b1c19161760038501555b60048401600180841b036080830151166001600160601b03841b8254161790550151910155604051908152f35b015190508880610c13565b9060038501600052866000209160005b601f1985168110610cbf5750926005949260019260a09583601f19811610610ca6575b505050811b016003850155610c2b565b015160001960f88460031b161c19169055888080610c96565b919288600181928685015181550194019201610c73565b600384016000526020600020601f830160051c810160208410610d16575b601f880160051c82018110610d0a575050610bf1565b60008155600101610cf4565b5080610cf4565b015190508580610ba2565b6001830160005260206000209060005b601f1984168110610d7f575060019394959683601f19811610610d66575b505050811b016001820155610bba565b015160001960f88460031b161c19169055858080610d56565b9091602060018192858b015181550193019101610d38565b600183016000526020600020601f830160051c810160208410610dd7575b601f830160051c82018110610dcb575050610b87565b60008155600101610db5565b5080610db5565b015190508580610b46565b8460005260206000209060005b601f1984168110610e3a575060019394959683601f19811610610e21575b505050811b018355610b5b565b015160001960f88460031b161c19169055858080610e14565b9091602060018192858b015181550193019101610df6565b846000526020600020601f830160051c810160208410610e8f575b601f830160051c82018110610e83575050610b2b565b60008155600101610e6d565b5080610e6d565b60405160208180610ed0630a85bd0160e11b95868352336004840152600060248401528a6044840152608060648401526084830190611795565b03816000335af160009181610f67575b50610f3a573d15610f33573d610ef581611872565b90610f036040519283611851565b81523d6000602083013e5b80519081610f2e57604051633250574960e11b8152336004820152602490fd5b602001fd5b6060610f0e565b6001600160e01b03191603610f4f5784610ac8565b604051633250574960e11b8152336004820152602490fd5b9091506020813d602011610fa4575b81610f8360209383611851565b8101031261019a57516001600160e01b03198116810361019a579087610ee0565b3d9150610f76565b6040516339e3563760e11b815260006004820152602490fd5b610fce3361190e565b8060001981011161101157336000526006602052604060002060001982016000526020528660406000205586600052600760205260001901604060002055610abd565b634e487b7160e01b600052601160045260246000fd5b338114610ab5576110378161190e565b86600052600760205260406000205490826000526006602052604060002091818103611081575b508760005260076020526000604081205560005260205260006040812055610ab5565b8160005282602052604060002054816000528060406000205560005260076020526040600020558861105e565b600086815260046020526040902080546001600160a01b031916905580600052600360205260406000206000198154019055610a07565b604051633250574960e11b815260006004820152602490fd5b60405162461bcd60e51b815260206004820152601160248201527005061676573206d757374206265203e203607c1b6044820152606490fd5b60405162461bcd60e51b815260206004820152600f60248201526e105d5d1a1bdc881c995c5d5a5c9959608a1b6044820152606490fd5b60405162461bcd60e51b815260206004820152600e60248201526d151a5d1b19481c995c5d5a5c995960921b6044820152606490fd5b3461019a57600036600319011261019a57604051600060018054906111c882611947565b8085529181811690811561125c5750600114611203575b610812846111ef81860382611851565b604051918291602083526020830190611795565b600081815292507fb10e2d527612073b26eecdfd717e6a320cf44b4afac2b0732d9fcbe2b7fa0cf65b8284106112445750505081016020016111ef826111df565b8054602085870181019190915290930192810161122c565b60ff191660208087019190915292151560051b850190920192506111ef91508390506111df565b3461019a57600036600319011261019a57600a546040516001600160a01b039091168152602090f35b3461019a5760208060031936011261019a576112c66117ba565b6112cf8161190e565b6112d881611f28565b906112e66040519283611851565b8082526112f281611f28565b8285019390601f190136853760005b82811061134c5750505090604051928392818401908285525180915260408401929160005b82811061133557505050500390f35b835185528695509381019392810192600101611326565b6113568183611cf4565b9084518110156113775761137291878260051b87010152611ed9565b611301565b634e487b7160e01b600052603260045260246000fd5b3461019a57600036600319011261019a576113a66118e2565b600a80546001600160a01b031981169091556000906001600160a01b03167f8be0079c531659141344cd1fd0a4f28419497f9722a3daafe3b4186f6b6457e08280a3005b3461019a57602036600319011261019a57602061140d6114086117ba565b61190e565b604051908152f35b3461019a57602036600319011261019a576020611433600435611cb9565b6040516001600160a01b039091168152f35b3461019a57602036600319011261019a5760043560085481101561147c5761146e602091611d54565b90546040519160031b1c8152f35b6044906040519063295f44f760e21b8252600060048301526024820152fd5b3461019a576108976114ac366117e6565b90604051926114ba84611836565b60008452610891838383611a27565b3461019a57604036600319011261019a57602061140d6114e76117ba565b60243590611cf4565b3461019a57610897611501366117e6565b91611a27565b3461019a57600036600319011261019a576020600854604051908152f35b3461019a57604036600319011261019a5761153e6117ba565b60243561154a81611cb9565b331515806115f9575b806115cc575b6115b4576001600160a01b039283169282918491167f8c5be1e5ebec7d5bd14f71427d1e84f3dd0314c0f7b2291e5b200ac8c7c3b925600080a4600090815260046020526040902080546001600160a01b0319169091179055005b60405163a9fbf51f60e01b8152336004820152602490fd5b5060018060a01b038116600052600560205260406000203360005260205260ff6040600020541615611559565b506001600160a01b038116331415611553565b3461019a57602036600319011261019a5760043561162981611cb9565b506000526004602052602060018060a01b0360406000205416604051908152f35b3461019a57600036600319011261019a576040516000805461166b81611947565b8084529060019081811690811561125c575060011461169457610812846111ef81860382611851565b600080805292507f290decd9548b62a8d60345a988386fc84ba6bc95484008f6362f93160ef3e5635b8284106116d55750505081016020016111ef826111df565b805460208587018101919091529093019281016116bd565b3461019a57602036600319011261019a576004359063ffffffff60e01b821680920361019a5760209163780e9d6360e01b811490811561172f575b5015158152f35b6380ac58cd60e01b811491508115611761575b8115611750575b5083611728565b6301ffc9a760e01b14905083611749565b635b5e139f60e01b81149150611742565b60005b8381106117855750506000910152565b8181015183820152602001611775565b906020916117ae81518092818552858086019101611772565b601f01601f1916010190565b600435906001600160a01b038216820361019a57565b602435906001600160a01b038216820361019a57565b606090600319011261019a576001600160a01b0390600435828116810361019a5791602435908116810361019a579060443590565b60c081019081106001600160401b0382111761081657604052565b602081019081106001600160401b0382111761081657604052565b90601f801991011681019081106001600160401b0382111761081657604052565b6001600160401b03811161081657601f01601f191660200190565b92919261189982611872565b916118a76040519384611851565b82948184528183011161019a578281602093846000960137010152565b9080601f8301121561019a578160206118df9335910161188d565b90565b600a546001600160a01b031633036118f657565b60405163118cdaa760e01b8152336004820152602490fd5b6001600160a01b0316801561192e57600052600360205260406000205490565b6040516322718ad960e21b815260006004820152602490fd5b90600182811c92168015611977575b602083101461196157565b634e487b7160e01b600052602260045260246000fd5b91607f1691611956565b906040519182600082549261199584611947565b908184526001948581169081600014611a0457506001146119c1575b50506119bf92500383611851565b565b9093915060005260209081600020936000915b8183106119ec5750506119bf935082010138806119b1565b855488840185015294850194879450918301916119d4565b9150506119bf94506020925060ff191682840152151560051b82010138806119b1565b6001600160a01b03828116939184156110e557600094838652602095600287526040968488832054169633151580611c2b575b5087158015611bf8575b84845260038352898420805460010190558784526002835289842080546001600160a01b0319168617905587858a7fddf252ad1be2c89b69c2b068fc378daa952ba7f163c4a11628f55a4df523b3ef8780a415611b8c5760085487845260098352808a852055600160401b811015611b785787610a9c826001611aea9401600855611d54565b838803611b26575b505050501692838303611b055750505050565b6064945051926364283d7b60e01b8452600484015260248301526044820152fd5b611b2f9061190e565b600019810193908411611b645782916007918a9452600681528383208584528152878484205587835252205538808080611af2565b634e487b7160e01b83526011600452602483fd5b634e487b7160e01b84526041600452602484fd5b878414611aea57611b9c8861190e565b878452600783528984205490898552600684528a852091818103611bd6575b5088855260078452848b812055845282528289812055611aea565b8186528285528b862054818752808d8820558652600785528b86205538611bbb565b600088815260046020526040902080546001600160a01b0319169055888452600383528984208054600019019055611a64565b80611c78575b15611c3c5738611a5a565b888789611c59576024915190637e27328960e01b82526004820152fd5b905163177e802f60e01b81523360048201526024810191909152604490fd5b503388148015611c9d575b80611c3157508683526004825233868a8520541614611c31565b5087835260058252888320338452825260ff8984205416611c83565b6000818152600260205260409020546001600160a01b0316908115611cdc575090565b60249060405190637e27328960e01b82526004820152fd5b611cfd8161190e565b821015611d295760018060a01b0316600052600660205260406000209060005260205260406000205490565b60405163295f44f760e21b81526001600160a01b039190911660048201526024810191909152604490fd5b6008548110156113775760086000527ff3f7a9fe364faab93b216da50a3214154f22a0a2b415b23a84c8169e8b636ee30190600090565b90939192833b611d9d575b5050505050565b604051630a85bd0160e11b8082526001600160a01b039384166004830152958316602482015260448101919091526080606482015294921692602092918590611dea906084830190611795565b039483816000978189895af1869181611e95575b50611e5f575050503d600014611e56573d611e1881611872565b90611e266040519283611851565b81528093823d92013e5b82519283611e5157604051633250574960e11b815260048101849052602490fd5b019050fd5b60609250611e30565b919450915063ffffffff60e01b1603611e7d57503880808080611d96565b60249060405190633250574960e11b82526004820152fd5b9091508481813d8311611ed2575b611ead8183611851565b81010312611ece57516001600160e01b031981168103611ece579038611dfe565b8680fd5b503d611ea3565b60001981146110115760010190565b15611eef57565b60405162461bcd60e51b81526020600482015260116024820152702737b732bc34b9ba32b73a103a37b5b2b760791b6044820152606490fd5b6001600160401b0381116108165760051b60200190565b90611f4982611872565b611f566040519182611851565b8281528092611f67601f1991611872565b0190602036910137565b805115612054578051600291828201809211611011576003918290046001600160fe1b038116810361101157611faa908495941b611f3f565b936020850193829183518401906020820192835194600085525b838110612003575050505052510680600114611ff057600214611fe5575090565b603d90600019015390565b50603d9081600019820153600119015390565b87600491999293949901918251600190603f9082828260121c16880101518453828282600c1c16880101518385015382828260061c1688010151888501531685010151898201530197929190611fc4565b505060405161206281611836565b6000815290565b806000917a184f03e93ff9f4daa797ed6e38ed64bf6a1f0100000000000000008082101561219e575b506d04ee2d6d415b85acef81000000008083101561218f575b50662386f26fc1000080831015612180575b506305f5e10080831015612171575b5061271080831015612162575b506064821015612152575b600a80921015612148575b600190816021612100828701611f3f565b95860101905b612112575b5050505090565b600019019083906f181899199a1a9b1b9c1cb0b131b232b360811b8282061a83530491821561214357919082612106565b61210b565b91600101916120ef565b91906064600291049101916120e4565b600491939204910191386120d9565b600891939204910191386120cc565b601091939204910191386120bd565b602091939204910191386120ab565b604093508104915038612092565b604051906001600160a01b031680606083016001600160401b0381118482101761081657604052602a83526020830160403682378351156113775760309053825160019081101561137757607860218501536029905b808211612232575050612213575090565b6044906040519063e22e27eb60e01b8252600482015260146024820152fd5b9091600f8116601081101561228b576f181899199a1a9b1b9c1cb0b131b232b360811b901a61226184876122a0565b5360041c918015612276576000190190612202565b60246000634e487b7160e01b81526011600452fd5b60246000634e487b7160e01b81526032600452fd5b908151811015611377570160200190565b9081519160019280841b9080820460021490151715611011576122d390611f3f565b9260009182825b61232e575b5050506122eb81611f3f565b9060005b8181106122fd575090925050565b612329906001600160f81b031961231482886122a0565b511660001a61232382866122a0565b53611ed9565b6122ef565b81518110156123b057612391906001600160f81b031961234e82856122a0565b511694601160f91b861480156123a3575b1561239757605c61237961237283611ed9565b928a6122a0565b5361232361238682611ed9565b9660001a91896122a0565b826122da565b61232361238682611ed9565b50601760fa1b861461235f565b6122df56fea26469706673582212204b01e5d543e7bf646e10d50eaf5de44ddd047864b16c0e493267e2ecfcc9ba2f64736f6c63430008140033","opcodes":"PUSH1 0x80 CALLVALUE PUSH3 0x39A JUMPI PUSH1 0x1 PUSH1 0x1 PUSH1 0x40 SHL SUB SWAP1 PUSH1 0x40 DUP2 DUP2 ADD DUP4 DUP2 GT DUP4 DUP3 LT OR PUSH3 0x384 JUMPI DUP2 MSTORE PUSH1 0x7 DUP3 MSTORE PUSH1 0x20 SWAP3 PUSH7 0x109BDBDAD39195 PUSH1 0xCA SHL DUP5 DUP5 ADD MSTORE DUP2 MLOAD SWAP1 DUP3 DUP3 ADD DUP3 DUP2 LT DUP3 DUP3 GT OR PUSH3 0x384 JUMPI DUP4 MSTORE PUSH1 0x4 SWAP2 DUP3 DUP2 MSTORE PUSH4 0x424F4F4B PUSH1 0xE0 SHL DUP7 DUP3 ADD MSTORE DUP5 MLOAD SWAP1 DUP3 DUP3 GT PUSH3 0x36F JUMPI PUSH1 0x0 SWAP7 DUP8 SLOAD SWAP3 PUSH1 0x1 SWAP8 DUP9 DUP6 DUP2 SHR SWAP6 AND DUP1 ISZERO PUSH3 0x364 JUMPI JUMPDEST DUP4 DUP7 LT EQ PUSH3 0x351 JUMPI DUP2 SWAP1 PUSH1 0x1F SWAP6 DUP7 DUP2 GT PUSH3 0x2FE JUMPI JUMPDEST POP DUP4 SWAP1 DUP7 DUP4 GT PUSH1 0x1 EQ PUSH3 0x29A JUMPI DUP12 SWAP3 PUSH3 0x28E JUMPI JUMPDEST POP POP PUSH1 0x0 NOT PUSH1 0x3 DUP4 SWAP1 SHL SHR NOT AND SWAP1 DUP9 SHL OR DUP9 SSTORE JUMPDEST DUP2 MLOAD SWAP4 DUP5 GT PUSH3 0x27B JUMPI DUP7 SLOAD DUP8 DUP2 DUP2 SHR SWAP2 AND DUP1 ISZERO PUSH3 0x270 JUMPI JUMPDEST DUP3 DUP3 LT EQ PUSH3 0x25D JUMPI SWAP1 DUP2 DUP5 DUP7 SWAP6 SWAP5 SWAP4 GT PUSH3 0x206 JUMPI JUMPDEST POP DUP1 SWAP3 DUP5 GT PUSH1 0x1 EQ PUSH3 0x19E JUMPI POP DUP8 SWAP3 PUSH3 0x192 JUMPI JUMPDEST POP POP PUSH1 0x0 NOT PUSH1 0x3 DUP4 SWAP1 SHL SHR NOT AND SWAP1 DUP5 SHL OR DUP4 SSTORE JUMPDEST CALLER ISZERO PUSH3 0x17D JUMPI POP PUSH1 0xA DUP1 SLOAD CALLER PUSH1 0x1 PUSH1 0x1 PUSH1 0xA0 SHL SUB NOT DUP3 AND DUP2 OR SWAP1 SWAP3 SSTORE SWAP2 MLOAD SWAP4 SWAP1 SWAP2 PUSH1 0x1 PUSH1 0x1 PUSH1 0xA0 SHL SUB AND SWAP1 PUSH32 0x8BE0079C531659141344CD1FD0A4F28419497F9722A3DAAFE3B4186F6B6457E0 SWAP1 DUP1 LOG3 PUSH1 0xC SSTORE PUSH2 0x23EB SWAP1 DUP2 PUSH3 0x3A0 DUP3 CODECOPY RETURN JUMPDEST DUP4 PUSH1 0x24 SWAP3 MLOAD SWAP2 PUSH4 0x1E4FBDF7 PUSH1 0xE0 SHL DUP4 MSTORE DUP3 ADD MSTORE REVERT JUMPDEST ADD MLOAD SWAP1 POP CODESIZE DUP1 PUSH3 0x109 JUMP JUMPDEST SWAP2 SWAP1 DUP8 SWAP5 POP PUSH1 0x1F NOT DUP5 AND DUP6 DUP11 MSTORE DUP4 DUP11 KECCAK256 SWAP4 DUP11 SWAP1 JUMPDEST DUP3 DUP3 LT PUSH3 0x1EC JUMPI POP POP DUP5 GT PUSH3 0x1D2 JUMPI JUMPDEST POP POP POP DUP2 SHL ADD DUP4 SSTORE PUSH3 0x11D JUMP JUMPDEST ADD MLOAD PUSH1 0x0 NOT PUSH1 0xF8 DUP5 PUSH1 0x3 SHL AND SHR NOT AND SWAP1 SSTORE CODESIZE DUP1 DUP1 PUSH3 0x1C4 JUMP JUMPDEST DUP5 DUP5 ADD MLOAD DUP7 SSTORE DUP11 SWAP8 SWAP1 SWAP6 ADD SWAP5 SWAP4 DUP5 ADD SWAP4 SWAP1 DUP2 ADD SWAP1 PUSH3 0x1B2 JUMP JUMPDEST SWAP1 SWAP2 SWAP3 SWAP4 POP DUP8 DUP10 MSTORE DUP2 DUP10 KECCAK256 DUP5 DUP1 DUP8 ADD PUSH1 0x5 SHR DUP3 ADD SWAP3 DUP5 DUP9 LT PUSH3 0x253 JUMPI JUMPDEST SWAP2 DUP8 SWAP7 DUP12 SWAP3 SWAP7 SWAP6 SWAP5 SWAP4 ADD PUSH1 0x5 SHR ADD SWAP2 JUMPDEST DUP3 DUP2 LT PUSH3 0x244 JUMPI POP POP PUSH3 0xF3 JUMP JUMPDEST DUP12 DUP2 SSTORE DUP8 SWAP7 POP DUP11 SWAP2 ADD PUSH3 0x234 JUMP JUMPDEST SWAP3 POP DUP2 SWAP3 PUSH3 0x224 JUMP JUMPDEST PUSH4 0x4E487B71 PUSH1 0xE0 SHL DUP10 MSTORE PUSH1 0x22 DUP7 MSTORE PUSH1 0x24 DUP10 REVERT JUMPDEST SWAP1 PUSH1 0x7F AND SWAP1 PUSH3 0xDC JUMP JUMPDEST PUSH4 0x4E487B71 PUSH1 0xE0 SHL DUP9 MSTORE PUSH1 0x41 DUP6 MSTORE PUSH1 0x24 DUP9 REVERT JUMPDEST ADD MLOAD SWAP1 POP CODESIZE DUP1 PUSH3 0xAE JUMP JUMPDEST DUP12 DUP1 MSTORE DUP5 DUP13 KECCAK256 DUP12 SWAP5 POP SWAP2 SWAP1 PUSH1 0x1F NOT DUP5 AND DUP14 JUMPDEST DUP8 DUP3 DUP3 LT PUSH3 0x2E7 JUMPI POP POP DUP5 GT PUSH3 0x2CD JUMPI JUMPDEST POP POP POP DUP2 SHL ADD DUP9 SSTORE PUSH3 0xC2 JUMP JUMPDEST ADD MLOAD PUSH1 0x0 NOT PUSH1 0xF8 DUP5 PUSH1 0x3 SHL AND SHR NOT AND SWAP1 SSTORE CODESIZE DUP1 DUP1 PUSH3 0x2BF JUMP JUMPDEST DUP4 DUP6 ADD MLOAD DUP7 SSTORE DUP15 SWAP8 SWAP1 SWAP6 ADD SWAP5 SWAP4 DUP5 ADD SWAP4 ADD PUSH3 0x2AC JUMP JUMPDEST SWAP1 SWAP2 POP DUP11 DUP1 MSTORE DUP4 DUP12 KECCAK256 DUP7 DUP1 DUP6 ADD PUSH1 0x5 SHR DUP3 ADD SWAP3 DUP7 DUP7 LT PUSH3 0x347 JUMPI JUMPDEST SWAP2 DUP13 SWAP2 DUP7 SWAP6 SWAP5 SWAP4 ADD PUSH1 0x5 SHR ADD SWAP2 JUMPDEST DUP3 DUP2 LT PUSH3 0x338 JUMPI POP POP PUSH3 0x98 JUMP JUMPDEST DUP14 DUP2 SSTORE DUP6 SWAP5 POP DUP13 SWAP2 ADD PUSH3 0x328 JUMP JUMPDEST SWAP3 POP DUP2 SWAP3 PUSH3 0x31A JUMP JUMPDEST PUSH4 0x4E487B71 PUSH1 0xE0 SHL DUP11 MSTORE PUSH1 0x22 DUP8 MSTORE PUSH1 0x24 DUP11 REVERT JUMPDEST SWAP5 PUSH1 0x7F AND SWAP5 PUSH3 0x81 JUMP JUMPDEST PUSH1 0x41 DUP5 PUSH4 0x4E487B71 PUSH1 0xE0 SHL PUSH1 0x0 MSTORE MSTORE PUSH1 0x24 PUSH1 0x0 REVERT JUMPDEST PUSH4 0x4E487B71 PUSH1 0xE0 SHL PUSH1 0x0 MSTORE PUSH1 0x41 PUSH1 0x4 MSTORE PUSH1 0x24 PUSH1 0x0 REVERT JUMPDEST PUSH1 0x0 DUP1 REVERT INVALID PUSH1 0x80 DUP1 PUSH1 0x40 MSTORE PUSH1 0x4 CALLDATASIZE LT ISZERO PUSH2 0x13 JUMPI PUSH1 0x0 DUP1 REVERT JUMPDEST PUSH1 0x0 CALLDATALOAD PUSH1 0xE0 SHR SWAP1 DUP2 PUSH4 0x1FFC9A7 EQ PUSH2 0x16ED JUMPI POP DUP1 PUSH4 0x6FDDE03 EQ PUSH2 0x164A JUMPI DUP1 PUSH4 0x81812FC EQ PUSH2 0x160C JUMPI DUP1 PUSH4 0x95EA7B3 EQ PUSH2 0x1525 JUMPI DUP1 PUSH4 0x18160DDD EQ PUSH2 0x1507 JUMPI DUP1 PUSH4 0x23B872DD EQ PUSH2 0x14F0 JUMPI DUP1 PUSH4 0x2F745C59 EQ PUSH2 0x14C9 JUMPI DUP1 PUSH4 0x42842E0E EQ PUSH2 0x149B JUMPI DUP1 PUSH4 0x4F6CCCE7 EQ PUSH2 0x1445 JUMPI DUP1 PUSH4 0x6352211E EQ PUSH2 0x1415 JUMPI DUP1 PUSH4 0x70A08231 EQ PUSH2 0x13EA JUMPI DUP1 PUSH4 0x715018A6 EQ PUSH2 0x138D JUMPI DUP1 PUSH4 0x8462151C EQ PUSH2 0x12AC JUMPI DUP1 PUSH4 0x8DA5CB5B EQ PUSH2 0x1283 JUMPI DUP1 PUSH4 0x95D89B41 EQ PUSH2 0x11A4 JUMPI DUP1 PUSH4 0xA139D3D0 EQ PUSH2 0x93E JUMPI DUP1 PUSH4 0xA22CB465 EQ PUSH2 0x899 JUMPI DUP1 PUSH4 0xB88D4FDE EQ PUSH2 0x82C JUMPI DUP1 PUSH4 0xC87B56DD EQ PUSH2 0x32D JUMPI DUP1 PUSH4 0xE0FF5B8B EQ PUSH2 0x1F5 JUMPI DUP1 PUSH4 0xE985E9C5 EQ PUSH2 0x19F JUMPI PUSH4 0xF2FDE38B EQ PUSH2 0x111 JUMPI PUSH1 0x0 DUP1 REVERT JUMPDEST CALLVALUE PUSH2 0x19A JUMPI PUSH1 0x20 CALLDATASIZE PUSH1 0x3 NOT ADD SLT PUSH2 0x19A JUMPI PUSH2 0x12A PUSH2 0x17BA JUMP JUMPDEST PUSH2 0x132 PUSH2 0x18E2 JUMP JUMPDEST PUSH1 0x1 PUSH1 0x1 PUSH1 0xA0 SHL SUB SWAP1 DUP2 AND SWAP1 DUP2 ISZERO PUSH2 0x181 JUMPI PUSH1 0xA SLOAD DUP3 PUSH1 0x1 PUSH1 0x1 PUSH1 0x60 SHL SUB PUSH1 0xA0 SHL DUP3 AND OR PUSH1 0xA SSTORE AND PUSH32 0x8BE0079C531659141344CD1FD0A4F28419497F9722A3DAAFE3B4186F6B6457E0 PUSH1 0x0 DUP1 LOG3 STOP JUMPDEST PUSH1 0x40 MLOAD PUSH4 0x1E4FBDF7 PUSH1 0xE0 SHL DUP2 MSTORE PUSH1 0x0 PUSH1 0x4 DUP3 ADD MSTORE PUSH1 0x24 SWAP1 REVERT JUMPDEST PUSH1 0x0 DUP1 REVERT JUMPDEST CALLVALUE PUSH2 0x19A JUMPI PUSH1 0x40 CALLDATASIZE PUSH1 0x3 NOT ADD SLT PUSH2 0x19A JUMPI PUSH2 0x1B8 PUSH2 0x17BA JUMP JUMPDEST PUSH2 0x1C0 PUSH2 0x17D0 JUMP JUMPDEST SWAP1 PUSH1 0x1 DUP1 PUSH1 0xA0 SHL SUB DUP1 SWAP2 AND PUSH1 0x0 MSTORE PUSH1 0x5 PUSH1 0x20 MSTORE PUSH1 0x40 PUSH1 0x0 KECCAK256 SWAP2 AND PUSH1 0x0 MSTORE PUSH1 0x20 MSTORE PUSH1 0x20 PUSH1 0xFF PUSH1 0x40 PUSH1 0x0 KECCAK256 SLOAD AND PUSH1 0x40 MLOAD SWAP1 ISZERO ISZERO DUP2 MSTORE RETURN JUMPDEST CALLVALUE PUSH2 0x19A JUMPI PUSH1 0x20 DUP1 PUSH1 0x3 NOT CALLDATASIZE ADD SLT PUSH2 0x19A JUMPI PUSH1 0x4 CALLDATALOAD SWAP1 PUSH1 0x40 MLOAD PUSH2 0x217 DUP2 PUSH2 0x181B JUMP JUMPDEST PUSH1 0x0 PUSH1 0xA0 PUSH1 0x60 SWAP3 DUP4 DUP2 MSTORE DUP4 DUP6 DUP3 ADD MSTORE DUP3 PUSH1 0x40 DUP3 ADD MSTORE DUP4 DUP1 DUP3 ADD MSTORE DUP3 PUSH1 0x80 DUP3 ADD MSTORE ADD MSTORE DUP3 PUSH1 0x0 MSTORE PUSH1 0x2 DUP3 MSTORE PUSH1 0x1 DUP1 PUSH1 0xA0 SHL SUB SWAP3 PUSH2 0x25B DUP5 PUSH1 0x40 PUSH1 0x0 KECCAK256 SLOAD AND ISZERO ISZERO PUSH2 0x1EE8 JUMP JUMPDEST PUSH1 0x0 MSTORE PUSH1 0xB DUP3 MSTORE PUSH1 0x40 PUSH1 0x0 KECCAK256 SWAP1 PUSH1 0x40 MLOAD SWAP4 PUSH2 0x275 DUP6 PUSH2 0x181B JUMP JUMPDEST PUSH2 0x27E DUP4 PUSH2 0x1981 JUMP JUMPDEST DUP6 MSTORE PUSH2 0x31B PUSH2 0x28F PUSH1 0x1 DUP6 ADD PUSH2 0x1981 JUMP JUMPDEST DUP6 DUP8 ADD SWAP1 DUP2 MSTORE PUSH1 0x2 DUP6 ADD SLOAD SWAP1 PUSH1 0x40 DUP9 ADD SWAP2 DUP3 MSTORE PUSH2 0x2AE PUSH1 0x3 DUP8 ADD PUSH2 0x1981 JUMP JUMPDEST DUP6 DUP10 ADD SWAP1 DUP2 MSTORE PUSH1 0x5 DUP6 PUSH1 0x4 DUP10 ADD SLOAD AND SWAP8 PUSH1 0x80 DUP12 ADD SWAP9 DUP10 MSTORE ADD SLOAD SWAP6 PUSH1 0xA0 DUP11 ADD SWAP7 DUP8 MSTORE PUSH2 0x305 PUSH2 0x2EF DUP11 PUSH1 0xC0 PUSH1 0x40 MLOAD SWAP14 DUP15 SWAP14 DUP15 MSTORE MLOAD SWAP2 DUP14 ADD MSTORE PUSH1 0xE0 DUP13 ADD SWAP1 PUSH2 0x1795 JUMP JUMPDEST SWAP4 MLOAD SWAP4 PUSH1 0x1F NOT SWAP5 DUP6 DUP13 DUP4 SUB ADD PUSH1 0x40 DUP14 ADD MSTORE PUSH2 0x1795 JUMP JUMPDEST SWAP4 MLOAD SWAP1 DUP10 ADD MSTORE MLOAD SWAP1 DUP8 DUP4 SUB ADD PUSH1 0x80 DUP9 ADD MSTORE PUSH2 0x1795 JUMP JUMPDEST SWAP3 MLOAD AND PUSH1 0xA0 DUP5 ADD MSTORE MLOAD PUSH1 0xC0 DUP4 ADD MSTORE SUB SWAP1 RETURN JUMPDEST CALLVALUE PUSH2 0x19A JUMPI PUSH1 0x20 DUP1 PUSH1 0x3 NOT CALLDATASIZE ADD SLT PUSH2 0x19A JUMPI PUSH1 0x4 CALLDATALOAD PUSH1 0x0 DUP2 DUP2 MSTORE PUSH1 0x2 DUP4 MSTORE PUSH1 0x40 SWAP1 KECCAK256 SLOAD PUSH1 0x1 PUSH1 0x1 PUSH1 0xA0 SHL SUB SWAP1 PUSH2 0x366 SWAP1 DUP3 AND ISZERO ISZERO PUSH2 0x1EE8 JUMP JUMPDEST DUP2 PUSH1 0x0 MSTORE PUSH1 0xB DUP4 MSTORE PUSH1 0x40 PUSH1 0x0 KECCAK256 SWAP2 PUSH1 0x40 MLOAD SWAP3 PUSH2 0x381 DUP5 PUSH2 0x181B JUMP JUMPDEST PUSH2 0x38A DUP2 PUSH2 0x1981 JUMP JUMPDEST DUP5 MSTORE PUSH2 0x398 PUSH1 0x1 DUP3 ADD PUSH2 0x1981 JUMP JUMPDEST SWAP2 DUP6 DUP6 ADD SWAP3 DUP4 MSTORE PUSH1 0x2 DUP3 ADD SLOAD SWAP2 PUSH1 0x40 DUP7 ADD SWAP3 DUP4 MSTORE PUSH1 0x3 DUP2 ADD PUSH2 0x3B9 SWAP1 PUSH2 0x1981 JUMP JUMPDEST SWAP4 PUSH1 0x60 DUP8 ADD SWAP5 DUP6 MSTORE DUP6 PUSH1 0x4 DUP4 ADD SLOAD AND SWAP2 PUSH1 0x80 DUP9 ADD SWAP3 DUP4 MSTORE PUSH1 0x5 ADD SLOAD SWAP3 PUSH1 0xA0 DUP9 ADD SWAP4 DUP5 MSTORE PUSH2 0x3E5 SWAP1 PUSH2 0x2069 JUMP JUMPDEST PUSH1 0x40 MLOAD DUP1 SWAP2 DUP11 DUP3 ADD PUSH6 0x426F6F6B2023 PUSH1 0xD0 SHL SWAP1 MSTORE DUP1 MLOAD SWAP1 DUP2 DUP13 PUSH1 0x26 DUP6 ADD SWAP3 ADD SWAP2 PUSH2 0x40E SWAP3 PUSH2 0x1772 JUMP JUMPDEST DUP2 ADD SUB PUSH1 0x6 DUP2 ADD DUP3 MSTORE PUSH1 0x26 ADD PUSH2 0x424 SWAP1 DUP3 PUSH2 0x1851 JUMP JUMPDEST PUSH2 0x42D SWAP1 PUSH2 0x22B1 JUMP JUMPDEST SWAP6 DUP1 DUP4 MLOAD AND PUSH2 0x43B SWAP1 PUSH2 0x21AC JUMP JUMPDEST PUSH1 0x40 MLOAD DUP1 SWAP2 DUP12 DUP3 ADD PUSH18 0x2137B7B59031B7B63632B1BA32B210313C9 PUSH1 0x75 SHL SWAP1 MSTORE DUP1 MLOAD SWAP1 DUP2 DUP14 PUSH1 0x32 DUP6 ADD SWAP3 ADD SWAP2 PUSH2 0x470 SWAP3 PUSH2 0x1772 JUMP JUMPDEST DUP2 ADD SUB PUSH1 0x12 DUP2 ADD DUP3 MSTORE PUSH1 0x32 ADD PUSH2 0x486 SWAP1 DUP3 PUSH2 0x1851 JUMP JUMPDEST PUSH2 0x48F SWAP1 PUSH2 0x22B1 JUMP JUMPDEST SWAP6 MLOAD PUSH2 0x49A SWAP1 PUSH2 0x22B1 JUMP JUMPDEST SWAP8 MLOAD PUSH2 0x4A5 SWAP1 PUSH2 0x22B1 JUMP JUMPDEST SWAP2 MLOAD PUSH2 0x4B0 SWAP1 PUSH2 0x22B1 JUMP JUMPDEST SWAP5 MLOAD PUSH2 0x4BB SWAP1 PUSH2 0x2069 JUMP JUMPDEST SWAP3 MLOAD AND PUSH2 0x4C7 SWAP1 PUSH2 0x21AC JUMP JUMPDEST SWAP3 MLOAD PUSH2 0x4D2 SWAP1 PUSH2 0x2069 JUMP JUMPDEST SWAP5 PUSH1 0x40 MLOAD SWAP8 DUP9 SWAP8 DUP11 DUP10 ADD PUSH1 0x7B PUSH1 0xF8 SHL SWAP1 MSTORE PUSH8 0x113730B6B2911D11 PUSH1 0xC1 SHL PUSH1 0x21 DUP11 ADD MSTORE DUP1 MLOAD SWAP1 DUP2 DUP13 PUSH1 0x29 DUP13 ADD SWAP3 ADD SWAP2 PUSH2 0x509 SWAP3 PUSH2 0x1772 JUMP JUMPDEST DUP9 ADD SWAP2 PUSH2 0x88B PUSH1 0xF2 SHL SWAP3 DUP4 PUSH1 0x29 DUP3 ADD MSTORE PUSH15 0x113232B9B1B934B83A34B7B7111D11 PUSH1 0x89 SHL PUSH1 0x2B DUP3 ADD MSTORE DUP2 MLOAD SWAP2 DUP3 DUP14 PUSH1 0x3A DUP5 ADD SWAP3 ADD SWAP2 PUSH2 0x546 SWAP3 PUSH2 0x1772 JUMP JUMPDEST ADD DUP3 PUSH1 0x3A DUP3 ADD MSTORE PUSH9 0x1134B6B0B3B2911D11 PUSH1 0xB9 SHL PUSH1 0x3C DUP3 ADD MSTORE DUP2 MLOAD SWAP2 DUP3 DUP13 PUSH1 0x45 DUP5 ADD SWAP3 ADD SWAP2 PUSH2 0x574 SWAP3 PUSH2 0x1772 JUMP JUMPDEST ADD SWAP1 PUSH1 0x45 DUP3 ADD MSTORE PUSH14 0x2261747472696275746573223A5B PUSH1 0x90 SHL PUSH1 0x47 DUP3 ADD MSTORE PUSH1 0x55 DUP2 ADD PUSH32 0x7B2274726169745F74797065223A225469746C65222C2276616C7565223A2200 SWAP1 MSTORE DUP2 MLOAD SWAP2 DUP3 DUP11 PUSH1 0x74 DUP5 ADD SWAP3 ADD SWAP2 PUSH2 0x5CE SWAP3 PUSH2 0x1772 JUMP JUMPDEST ADD SWAP3 PUSH3 0x89F4B PUSH1 0xEA SHL SWAP4 DUP5 PUSH1 0x74 DUP3 ADD MSTORE PUSH1 0x77 DUP2 ADD PUSH32 0x7B2274726169745F74797065223A22417574686F72222C2276616C7565223A22 SWAP1 MSTORE DUP2 MLOAD SWAP2 DUP3 DUP11 PUSH1 0x97 DUP5 ADD SWAP3 ADD SWAP2 PUSH2 0x61A SWAP3 PUSH2 0x1772 JUMP JUMPDEST ADD DUP4 PUSH1 0x97 DUP3 ADD MSTORE PUSH1 0x9A DUP2 ADD PUSH32 0x7B2274726169745F74797065223A225061676573222C2276616C7565223A2200 SWAP1 MSTORE DUP2 MLOAD SWAP2 DUP3 DUP10 PUSH1 0xB9 DUP5 ADD SWAP3 ADD SWAP2 PUSH2 0x65D SWAP3 PUSH2 0x1772 JUMP JUMPDEST ADD DUP3 PUSH1 0xB9 DUP3 ADD MSTORE PUSH1 0xBC DUP2 ADD PUSH32 0x7B2274726169745F74797065223A22526561646572222C2276616C7565223A22 SWAP1 MSTORE DUP2 MLOAD SWAP2 DUP3 DUP9 PUSH1 0xDC DUP5 ADD SWAP3 ADD SWAP2 PUSH2 0x6A0 SWAP3 PUSH2 0x1772 JUMP JUMPDEST ADD SWAP1 PUSH1 0xDC DUP3 ADD MSTORE PUSH1 0xDF DUP2 ADD PUSH32 0x7B22646973706C61795F74797065223A2264617465222C2274726169745F7479 SWAP1 MSTORE PUSH21 0x3832911D1126B4B73A32B21116113B30B63AB2911D PUSH1 0x59 SHL PUSH1 0xFF DUP3 ADD MSTORE DUP2 MLOAD SWAP1 PUSH2 0x114 SWAP3 DUP3 DUP8 DUP6 DUP5 ADD SWAP3 ADD SWAP2 PUSH2 0x704 SWAP3 PUSH2 0x1772 JUMP JUMPDEST ADD SWAP1 PUSH1 0x7D PUSH1 0xF8 SHL DUP1 SWAP2 DUP4 ADD MSTORE PUSH2 0x115 DUP3 ADD PUSH1 0x5D PUSH1 0xF8 SHL SWAP1 MSTORE PUSH2 0x116 DUP3 ADD MSTORE SUB PUSH1 0xF7 DUP2 ADD DUP3 MSTORE PUSH2 0x117 ADD PUSH2 0x737 SWAP1 DUP3 PUSH2 0x1851 JUMP JUMPDEST PUSH1 0x40 MLOAD PUSH1 0x60 DUP2 ADD SWAP2 DUP2 DUP4 LT PUSH1 0x1 PUSH1 0x1 PUSH1 0x40 SHL SUB DUP5 GT OR PUSH2 0x816 JUMPI PUSH2 0x7AC SWAP3 PUSH1 0x40 MSTORE PUSH1 0x40 DUP3 MSTORE PUSH32 0x4142434445464748494A4B4C4D4E4F505152535455565758595A616263646566 DUP5 DUP4 ADD MSTORE PUSH32 0x6768696A6B6C6D6E6F707172737475767778797A303132333435363738392B2F PUSH1 0x40 DUP4 ADD MSTORE PUSH2 0x1F71 JUMP JUMPDEST SWAP1 PUSH2 0x7FE PUSH1 0x3D PUSH1 0x40 MLOAD DUP1 SWAP5 PUSH32 0x646174613A6170706C69636174696F6E2F6A736F6E3B6261736536342C000000 DUP6 DUP4 ADD MSTORE PUSH2 0x7EE DUP2 MLOAD DUP1 SWAP3 DUP8 DUP7 DUP7 ADD SWAP2 ADD PUSH2 0x1772 JUMP JUMPDEST DUP2 ADD SUB PUSH1 0x1D DUP2 ADD DUP6 MSTORE ADD DUP4 PUSH2 0x1851 JUMP JUMPDEST PUSH2 0x812 PUSH1 0x40 MLOAD SWAP3 DUP3 DUP5 SWAP4 DUP5 MSTORE DUP4 ADD SWAP1 PUSH2 0x1795 JUMP JUMPDEST SUB SWAP1 RETURN JUMPDEST PUSH4 0x4E487B71 PUSH1 0xE0 SHL PUSH1 0x0 MSTORE PUSH1 0x41 PUSH1 0x4 MSTORE PUSH1 0x24 PUSH1 0x0 REVERT JUMPDEST CALLVALUE PUSH2 0x19A JUMPI PUSH1 0x80 CALLDATASIZE PUSH1 0x3 NOT ADD SLT PUSH2 0x19A JUMPI PUSH2 0x845 PUSH2 0x17BA JUMP JUMPDEST PUSH2 0x84D PUSH2 0x17D0 JUMP JUMPDEST SWAP1 PUSH1 0x44 CALLDATALOAD PUSH1 0x64 CALLDATALOAD SWAP3 PUSH1 0x1 PUSH1 0x1 PUSH1 0x40 SHL SUB DUP5 GT PUSH2 0x19A JUMPI CALLDATASIZE PUSH1 0x23 DUP6 ADD SLT ISZERO PUSH2 0x19A JUMPI PUSH2 0x885 PUSH2 0x897 SWAP5 CALLDATASIZE SWAP1 PUSH1 0x24 DUP2 PUSH1 0x4 ADD CALLDATALOAD SWAP2 ADD PUSH2 0x188D JUMP JUMPDEST SWAP3 PUSH2 0x891 DUP4 DUP4 DUP4 PUSH2 0x1A27 JUMP JUMPDEST CALLER PUSH2 0x1D8B JUMP JUMPDEST STOP JUMPDEST CALLVALUE PUSH2 0x19A JUMPI PUSH1 0x40 CALLDATASIZE PUSH1 0x3 NOT ADD SLT PUSH2 0x19A JUMPI PUSH2 0x8B2 PUSH2 0x17BA JUMP JUMPDEST PUSH1 0x24 CALLDATALOAD SWAP1 DUP2 ISZERO ISZERO DUP1 SWAP3 SUB PUSH2 0x19A JUMPI PUSH1 0x1 PUSH1 0x1 PUSH1 0xA0 SHL SUB AND SWAP1 DUP2 ISZERO PUSH2 0x925 JUMPI CALLER PUSH1 0x0 MSTORE PUSH1 0x5 PUSH1 0x20 MSTORE PUSH1 0x40 PUSH1 0x0 KECCAK256 DUP3 PUSH1 0x0 MSTORE PUSH1 0x20 MSTORE PUSH1 0x40 PUSH1 0x0 KECCAK256 PUSH1 0xFF NOT DUP2 SLOAD AND PUSH1 0xFF DUP4 AND OR SWAP1 SSTORE PUSH1 0x40 MLOAD SWAP1 DUP2 MSTORE PUSH32 0x17307EAB39AB6107E8899845AD3D59BD9653F200F220920489CA2B5937696C31 PUSH1 0x20 CALLER SWAP3 LOG3 STOP JUMPDEST PUSH1 0x40 MLOAD PUSH4 0xB611743 PUSH1 0xE3 SHL DUP2 MSTORE PUSH1 0x4 DUP2 ADD DUP4 SWAP1 MSTORE PUSH1 0x24 SWAP1 REVERT JUMPDEST CALLVALUE PUSH2 0x19A JUMPI PUSH1 0x80 CALLDATASIZE PUSH1 0x3 NOT ADD SLT PUSH2 0x19A JUMPI PUSH1 0x4 CALLDATALOAD PUSH1 0x1 PUSH1 0x1 PUSH1 0x40 SHL SUB DUP2 GT PUSH2 0x19A JUMPI PUSH2 0x96E SWAP1 CALLDATASIZE SWAP1 PUSH1 0x4 ADD PUSH2 0x18C4 JUMP JUMPDEST PUSH1 0x24 CALLDATALOAD PUSH1 0x1 PUSH1 0x1 PUSH1 0x40 SHL SUB DUP2 GT PUSH2 0x19A JUMPI PUSH2 0x98D SWAP1 CALLDATASIZE SWAP1 PUSH1 0x4 ADD PUSH2 0x18C4 JUMP JUMPDEST SWAP1 PUSH1 0x64 CALLDATALOAD PUSH1 0x1 PUSH1 0x1 PUSH1 0x40 SHL SUB DUP2 GT PUSH2 0x19A JUMPI PUSH2 0x9AD SWAP1 CALLDATASIZE SWAP1 PUSH1 0x4 ADD PUSH2 0x18C4 JUMP JUMPDEST DUP2 MLOAD ISZERO PUSH2 0x116E JUMPI DUP3 MLOAD ISZERO PUSH2 0x1137 JUMPI PUSH1 0x44 CALLDATALOAD ISZERO PUSH2 0x10FE JUMPI PUSH1 0xC SLOAD SWAP3 PUSH2 0x9D0 DUP5 PUSH2 0x1ED9 JUMP JUMPDEST PUSH1 0xC SSTORE PUSH1 0x40 MLOAD PUSH2 0x9DF DUP2 PUSH2 0x1836 JUMP JUMPDEST PUSH1 0x0 DUP2 MSTORE CALLER ISZERO PUSH2 0x10E5 JUMPI PUSH1 0x0 DUP6 DUP2 MSTORE PUSH1 0x2 PUSH1 0x20 MSTORE PUSH1 0x40 SWAP1 KECCAK256 SLOAD PUSH1 0x1 PUSH1 0x1 PUSH1 0xA0 SHL SUB AND DUP1 PUSH2 0x10AE JUMPI JUMPDEST CALLER PUSH1 0x0 MSTORE PUSH1 0x3 PUSH1 0x20 MSTORE PUSH1 0x40 PUSH1 0x0 KECCAK256 PUSH1 0x1 DUP2 SLOAD ADD SWAP1 SSTORE DUP6 PUSH1 0x0 MSTORE PUSH1 0x2 PUSH1 0x20 MSTORE PUSH1 0x40 PUSH1 0x0 KECCAK256 CALLER PUSH1 0x1 PUSH1 0x1 PUSH1 0x60 SHL SUB PUSH1 0xA0 SHL DUP3 SLOAD AND OR SWAP1 SSTORE DUP6 CALLER DUP3 PUSH32 0xDDF252AD1BE2C89B69C2B068FC378DAA952BA7F163C4A11628F55A4DF523B3EF PUSH1 0x0 DUP1 LOG4 DUP1 PUSH2 0x1027 JUMPI PUSH1 0x8 SLOAD DUP7 PUSH1 0x0 MSTORE PUSH1 0x9 PUSH1 0x20 MSTORE DUP1 PUSH1 0x40 PUSH1 0x0 KECCAK256 SSTORE PUSH1 0x1 PUSH1 0x40 SHL DUP2 LT ISZERO PUSH2 0x816 JUMPI DUP7 PUSH2 0xA9C DUP3 PUSH1 0x1 PUSH2 0xAB5 SWAP5 ADD PUSH1 0x8 SSTORE PUSH2 0x1D54 JUMP JUMPDEST SWAP1 SWAP2 SWAP1 DUP3 SLOAD SWAP1 PUSH1 0x3 SHL SWAP2 DUP3 SHL SWAP2 PUSH1 0x0 NOT SWAP1 SHL NOT AND OR SWAP1 SSTORE JUMP JUMPDEST CALLER DUP2 SUB PUSH2 0xFC5 JUMPI JUMPDEST PUSH2 0xFAC JUMPI CALLER EXTCODESIZE PUSH2 0xE96 JUMPI JUMPDEST POP PUSH1 0x40 MLOAD SWAP3 PUSH2 0xAD6 DUP5 PUSH2 0x181B JUMP JUMPDEST DUP4 MSTORE PUSH1 0x20 DUP4 ADD MSTORE PUSH1 0x44 CALLDATALOAD PUSH1 0x40 DUP4 ADD MSTORE PUSH1 0x60 DUP3 ADD MSTORE CALLER PUSH1 0x80 DUP3 ADD MSTORE TIMESTAMP PUSH1 0xA0 DUP3 ADD MSTORE DUP2 PUSH1 0x0 MSTORE PUSH1 0xB PUSH1 0x20 MSTORE PUSH1 0x40 PUSH1 0x0 KECCAK256 SWAP1 DUP1 MLOAD SWAP3 DUP4 MLOAD PUSH1 0x1 PUSH1 0x1 PUSH1 0x40 SHL SUB DUP2 GT PUSH2 0x816 JUMPI PUSH2 0xB22 DUP5 SLOAD PUSH2 0x1947 JUMP JUMPDEST PUSH1 0x1F DUP2 GT PUSH2 0xE52 JUMPI JUMPDEST POP PUSH1 0x20 PUSH1 0x1F DUP3 GT PUSH1 0x1 EQ PUSH2 0xDE9 JUMPI DUP2 SWAP3 SWAP4 SWAP5 SWAP6 PUSH1 0x0 SWAP3 PUSH2 0xDDE JUMPI JUMPDEST POP POP DUP2 PUSH1 0x1 SHL SWAP2 PUSH1 0x0 NOT SWAP1 PUSH1 0x3 SHL SHR NOT AND OR DUP4 SSTORE JUMPDEST PUSH1 0x20 DUP3 ADD MLOAD SWAP3 DUP4 MLOAD PUSH1 0x1 PUSH1 0x1 PUSH1 0x40 SHL SUB DUP2 GT PUSH2 0x816 JUMPI PUSH2 0xB7E PUSH1 0x1 DUP4 ADD SLOAD PUSH2 0x1947 JUMP JUMPDEST PUSH1 0x1F DUP2 GT PUSH2 0xD97 JUMPI JUMPDEST POP PUSH1 0x20 PUSH1 0x1F DUP3 GT PUSH1 0x1 EQ PUSH2 0xD28 JUMPI DUP2 SWAP3 SWAP4 SWAP5 SWAP6 PUSH1 0x0 SWAP3 PUSH2 0xD1D JUMPI JUMPDEST POP POP DUP2 PUSH1 0x1 SHL SWAP2 PUSH1 0x0 NOT SWAP1 PUSH1 0x3 SHL SHR NOT AND OR PUSH1 0x1 DUP3 ADD SSTORE JUMPDEST PUSH1 0x40 DUP4 ADD MLOAD PUSH1 0x2 DUP3 ADD SSTORE PUSH1 0x60 DUP4 ADD MLOAD SWAP3 DUP4 MLOAD PUSH1 0x1 PUSH1 0x1 PUSH1 0x40 SHL SUB DUP2 GT PUSH2 0x816 JUMPI PUSH2 0xBE7 PUSH1 0x3 DUP5 ADD SLOAD PUSH2 0x1947 JUMP JUMPDEST SWAP5 PUSH1 0x1F DUP7 GT PUSH2 0xCD6 JUMPI JUMPDEST PUSH1 0x20 SWAP6 POP DUP6 SWAP1 PUSH1 0x1F DUP4 GT PUSH1 0x1 EQ PUSH2 0xC63 JUMPI SWAP2 DUP1 PUSH1 0x5 SWAP5 SWAP3 PUSH1 0xA0 SWAP5 PUSH1 0x0 SWAP3 PUSH2 0xC58 JUMPI JUMPDEST POP POP DUP2 PUSH1 0x1 SHL SWAP2 PUSH1 0x0 NOT SWAP1 PUSH1 0x3 SHL SHR NOT AND OR PUSH1 0x3 DUP6 ADD SSTORE JUMPDEST PUSH1 0x4 DUP5 ADD PUSH1 0x1 DUP1 DUP5 SHL SUB PUSH1 0x80 DUP4 ADD MLOAD AND PUSH1 0x1 PUSH1 0x1 PUSH1 0x60 SHL SUB DUP5 SHL DUP3 SLOAD AND OR SWAP1 SSTORE ADD MLOAD SWAP2 ADD SSTORE PUSH1 0x40 MLOAD SWAP1 DUP2 MSTORE RETURN JUMPDEST ADD MLOAD SWAP1 POP DUP9 DUP1 PUSH2 0xC13 JUMP JUMPDEST SWAP1 PUSH1 0x3 DUP6 ADD PUSH1 0x0 MSTORE DUP7 PUSH1 0x0 KECCAK256 SWAP2 PUSH1 0x0 JUMPDEST PUSH1 0x1F NOT DUP6 AND DUP2 LT PUSH2 0xCBF JUMPI POP SWAP3 PUSH1 0x5 SWAP5 SWAP3 PUSH1 0x1 SWAP3 PUSH1 0xA0 SWAP6 DUP4 PUSH1 0x1F NOT DUP2 AND LT PUSH2 0xCA6 JUMPI JUMPDEST POP POP POP DUP2 SHL ADD PUSH1 0x3 DUP6 ADD SSTORE PUSH2 0xC2B JUMP JUMPDEST ADD MLOAD PUSH1 0x0 NOT PUSH1 0xF8 DUP5 PUSH1 0x3 SHL AND SHR NOT AND SWAP1 SSTORE DUP9 DUP1 DUP1 PUSH2 0xC96 JUMP JUMPDEST SWAP2 SWAP3 DUP9 PUSH1 0x1 DUP2 SWAP3 DUP7 DUP6 ADD MLOAD DUP2 SSTORE ADD SWAP5 ADD SWAP3 ADD PUSH2 0xC73 JUMP JUMPDEST PUSH1 0x3 DUP5 ADD PUSH1 0x0 MSTORE PUSH1 0x20 PUSH1 0x0 KECCAK256 PUSH1 0x1F DUP4 ADD PUSH1 0x5 SHR DUP2 ADD PUSH1 0x20 DUP5 LT PUSH2 0xD16 JUMPI JUMPDEST PUSH1 0x1F DUP9 ADD PUSH1 0x5 SHR DUP3 ADD DUP2 LT PUSH2 0xD0A JUMPI POP POP PUSH2 0xBF1 JUMP JUMPDEST PUSH1 0x0 DUP2 SSTORE PUSH1 0x1 ADD PUSH2 0xCF4 JUMP JUMPDEST POP DUP1 PUSH2 0xCF4 JUMP JUMPDEST ADD MLOAD SWAP1 POP DUP6 DUP1 PUSH2 0xBA2 JUMP JUMPDEST PUSH1 0x1 DUP4 ADD PUSH1 0x0 MSTORE PUSH1 0x20 PUSH1 0x0 KECCAK256 SWAP1 PUSH1 0x0 JUMPDEST PUSH1 0x1F NOT DUP5 AND DUP2 LT PUSH2 0xD7F JUMPI POP PUSH1 0x1 SWAP4 SWAP5 SWAP6 SWAP7 DUP4 PUSH1 0x1F NOT DUP2 AND LT PUSH2 0xD66 JUMPI JUMPDEST POP POP POP DUP2 SHL ADD PUSH1 0x1 DUP3 ADD SSTORE PUSH2 0xBBA JUMP JUMPDEST ADD MLOAD PUSH1 0x0 NOT PUSH1 0xF8 DUP5 PUSH1 0x3 SHL AND SHR NOT AND SWAP1 SSTORE DUP6 DUP1 DUP1 PUSH2 0xD56 JUMP JUMPDEST SWAP1 SWAP2 PUSH1 0x20 PUSH1 0x1 DUP2 SWAP3 DUP6 DUP12 ADD MLOAD DUP2 SSTORE ADD SWAP4 ADD SWAP2 ADD PUSH2 0xD38 JUMP JUMPDEST PUSH1 0x1 DUP4 ADD PUSH1 0x0 MSTORE PUSH1 0x20 PUSH1 0x0 KECCAK256 PUSH1 0x1F DUP4 ADD PUSH1 0x5 SHR DUP2 ADD PUSH1 0x20 DUP5 LT PUSH2 0xDD7 JUMPI JUMPDEST PUSH1 0x1F DUP4 ADD PUSH1 0x5 SHR DUP3 ADD DUP2 LT PUSH2 0xDCB JUMPI POP POP PUSH2 0xB87 JUMP JUMPDEST PUSH1 0x0 DUP2 SSTORE PUSH1 0x1 ADD PUSH2 0xDB5 JUMP JUMPDEST POP DUP1 PUSH2 0xDB5 JUMP JUMPDEST ADD MLOAD SWAP1 POP DUP6 DUP1 PUSH2 0xB46 JUMP JUMPDEST DUP5 PUSH1 0x0 MSTORE PUSH1 0x20 PUSH1 0x0 KECCAK256 SWAP1 PUSH1 0x0 JUMPDEST PUSH1 0x1F NOT DUP5 AND DUP2 LT PUSH2 0xE3A JUMPI POP PUSH1 0x1 SWAP4 SWAP5 SWAP6 SWAP7 DUP4 PUSH1 0x1F NOT DUP2 AND LT PUSH2 0xE21 JUMPI JUMPDEST POP POP POP DUP2 SHL ADD DUP4 SSTORE PUSH2 0xB5B JUMP JUMPDEST ADD MLOAD PUSH1 0x0 NOT PUSH1 0xF8 DUP5 PUSH1 0x3 SHL AND SHR NOT AND SWAP1 SSTORE DUP6 DUP1 DUP1 PUSH2 0xE14 JUMP JUMPDEST SWAP1 SWAP2 PUSH1 0x20 PUSH1 0x1 DUP2 SWAP3 DUP6 DUP12 ADD MLOAD DUP2 SSTORE ADD SWAP4 ADD SWAP2 ADD PUSH2 0xDF6 JUMP JUMPDEST DUP5 PUSH1 0x0 MSTORE PUSH1 0x20 PUSH1 0x0 KECCAK256 PUSH1 0x1F DUP4 ADD PUSH1 0x5 SHR DUP2 ADD PUSH1 0x20 DUP5 LT PUSH2 0xE8F JUMPI JUMPDEST PUSH1 0x1F DUP4 ADD PUSH1 0x5 SHR DUP3 ADD DUP2 LT PUSH2 0xE83 JUMPI POP POP PUSH2 0xB2B JUMP JUMPDEST PUSH1 0x0 DUP2 SSTORE PUSH1 0x1 ADD PUSH2 0xE6D JUMP JUMPDEST POP DUP1 PUSH2 0xE6D JUMP JUMPDEST PUSH1 0x40 MLOAD PUSH1 0x20 DUP2 DUP1 PUSH2 0xED0 PUSH4 0xA85BD01 PUSH1 0xE1 SHL SWAP6 DUP7 DUP4 MSTORE CALLER PUSH1 0x4 DUP5 ADD MSTORE PUSH1 0x0 PUSH1 0x24 DUP5 ADD MSTORE DUP11 PUSH1 0x44 DUP5 ADD MSTORE PUSH1 0x80 PUSH1 0x64 DUP5 ADD MSTORE PUSH1 0x84 DUP4 ADD SWAP1 PUSH2 0x1795 JUMP JUMPDEST SUB DUP2 PUSH1 0x0 CALLER GAS CALL PUSH1 0x0 SWAP2 DUP2 PUSH2 0xF67 JUMPI JUMPDEST POP PUSH2 0xF3A JUMPI RETURNDATASIZE ISZERO PUSH2 0xF33 JUMPI RETURNDATASIZE PUSH2 0xEF5 DUP2 PUSH2 0x1872 JUMP JUMPDEST SWAP1 PUSH2 0xF03 PUSH1 0x40 MLOAD SWAP3 DUP4 PUSH2 0x1851 JUMP JUMPDEST DUP2 MSTORE RETURNDATASIZE PUSH1 0x0 PUSH1 0x20 DUP4 ADD RETURNDATACOPY JUMPDEST DUP1 MLOAD SWAP1 DUP2 PUSH2 0xF2E JUMPI PUSH1 0x40 MLOAD PUSH4 0x32505749 PUSH1 0xE1 SHL DUP2 MSTORE CALLER PUSH1 0x4 DUP3 ADD MSTORE PUSH1 0x24 SWAP1 REVERT JUMPDEST PUSH1 0x20 ADD REVERT JUMPDEST PUSH1 0x60 PUSH2 0xF0E JUMP JUMPDEST PUSH1 0x1 PUSH1 0x1 PUSH1 0xE0 SHL SUB NOT AND SUB PUSH2 0xF4F JUMPI DUP5 PUSH2 0xAC8 JUMP JUMPDEST PUSH1 0x40 MLOAD PUSH4 0x32505749 PUSH1 0xE1 SHL DUP2 MSTORE CALLER PUSH1 0x4 DUP3 ADD MSTORE PUSH1 0x24 SWAP1 REVERT JUMPDEST SWAP1 SWAP2 POP PUSH1 0x20 DUP2 RETURNDATASIZE PUSH1 0x20 GT PUSH2 0xFA4 JUMPI JUMPDEST DUP2 PUSH2 0xF83 PUSH1 0x20 SWAP4 DUP4 PUSH2 0x1851 JUMP JUMPDEST DUP2 ADD SUB SLT PUSH2 0x19A JUMPI MLOAD PUSH1 0x1 PUSH1 0x1 PUSH1 0xE0 SHL SUB NOT DUP2 AND DUP2 SUB PUSH2 0x19A JUMPI SWAP1 DUP8 PUSH2 0xEE0 JUMP JUMPDEST RETURNDATASIZE SWAP2 POP PUSH2 0xF76 JUMP JUMPDEST PUSH1 0x40 MLOAD PUSH4 0x39E35637 PUSH1 0xE1 SHL DUP2 MSTORE PUSH1 0x0 PUSH1 0x4 DUP3 ADD MSTORE PUSH1 0x24 SWAP1 REVERT JUMPDEST PUSH2 0xFCE CALLER PUSH2 0x190E JUMP JUMPDEST DUP1 PUSH1 0x0 NOT DUP2 ADD GT PUSH2 0x1011 JUMPI CALLER PUSH1 0x0 MSTORE PUSH1 0x6 PUSH1 0x20 MSTORE PUSH1 0x40 PUSH1 0x0 KECCAK256 PUSH1 0x0 NOT DUP3 ADD PUSH1 0x0 MSTORE PUSH1 0x20 MSTORE DUP7 PUSH1 0x40 PUSH1 0x0 KECCAK256 SSTORE DUP7 PUSH1 0x0 MSTORE PUSH1 0x7 PUSH1 0x20 MSTORE PUSH1 0x0 NOT ADD PUSH1 0x40 PUSH1 0x0 KECCAK256 SSTORE PUSH2 0xABD JUMP JUMPDEST PUSH4 0x4E487B71 PUSH1 0xE0 SHL PUSH1 0x0 MSTORE PUSH1 0x11 PUSH1 0x4 MSTORE PUSH1 0x24 PUSH1 0x0 REVERT JUMPDEST CALLER DUP2 EQ PUSH2 0xAB5 JUMPI PUSH2 0x1037 DUP2 PUSH2 0x190E JUMP JUMPDEST DUP7 PUSH1 0x0 MSTORE PUSH1 0x7 PUSH1 0x20 MSTORE PUSH1 0x40 PUSH1 0x0 KECCAK256 SLOAD SWAP1 DUP3 PUSH1 0x0 MSTORE PUSH1 0x6 PUSH1 0x20 MSTORE PUSH1 0x40 PUSH1 0x0 KECCAK256 SWAP2 DUP2 DUP2 SUB PUSH2 0x1081 JUMPI JUMPDEST POP DUP8 PUSH1 0x0 MSTORE PUSH1 0x7 PUSH1 0x20 MSTORE PUSH1 0x0 PUSH1 0x40 DUP2 KECCAK256 SSTORE PUSH1 0x0 MSTORE PUSH1 0x20 MSTORE PUSH1 0x0 PUSH1 0x40 DUP2 KECCAK256 SSTORE PUSH2 0xAB5 JUMP JUMPDEST DUP2 PUSH1 0x0 MSTORE DUP3 PUSH1 0x20 MSTORE PUSH1 0x40 PUSH1 0x0 KECCAK256 SLOAD DUP2 PUSH1 0x0 MSTORE DUP1 PUSH1 0x40 PUSH1 0x0 KECCAK256 SSTORE PUSH1 0x0 MSTORE PUSH1 0x7 PUSH1 0x20 MSTORE PUSH1 0x40 PUSH1 0x0 KECCAK256 SSTORE DUP9 PUSH2 0x105E JUMP JUMPDEST PUSH1 0x0 DUP7 DUP2 MSTORE PUSH1 0x4 PUSH1 0x20 MSTORE PUSH1 0x40 SWAP1 KECCAK256 DUP1 SLOAD PUSH1 0x1 PUSH1 0x1 PUSH1 0xA0 SHL SUB NOT AND SWAP1 SSTORE DUP1 PUSH1 0x0 MSTORE PUSH1 0x3 PUSH1 0x20 MSTORE PUSH1 0x40 PUSH1 0x0 KECCAK256 PUSH1 0x0 NOT DUP2 SLOAD ADD SWAP1 SSTORE PUSH2 0xA07 JUMP JUMPDEST PUSH1 0x40 MLOAD PUSH4 0x32505749 PUSH1 0xE1 SHL DUP2 MSTORE PUSH1 0x0 PUSH1 0x4 DUP3 ADD MSTORE PUSH1 0x24 SWAP1 REVERT JUMPDEST PUSH1 0x40 MLOAD PUSH3 0x461BCD PUSH1 0xE5 SHL DUP2 MSTORE PUSH1 0x20 PUSH1 0x4 DUP3 ADD MSTORE PUSH1 0x11 PUSH1 0x24 DUP3 ADD MSTORE PUSH17 0x5061676573206D757374206265203E203 PUSH1 0x7C SHL PUSH1 0x44 DUP3 ADD MSTORE PUSH1 0x64 SWAP1 REVERT JUMPDEST PUSH1 0x40 MLOAD PUSH3 0x461BCD PUSH1 0xE5 SHL DUP2 MSTORE PUSH1 0x20 PUSH1 0x4 DUP3 ADD MSTORE PUSH1 0xF PUSH1 0x24 DUP3 ADD MSTORE PUSH15 0x105D5D1A1BDC881C995C5D5A5C9959 PUSH1 0x8A SHL PUSH1 0x44 DUP3 ADD MSTORE PUSH1 0x64 SWAP1 REVERT JUMPDEST PUSH1 0x40 MLOAD PUSH3 0x461BCD PUSH1 0xE5 SHL DUP2 MSTORE PUSH1 0x20 PUSH1 0x4 DUP3 ADD MSTORE PUSH1 0xE PUSH1 0x24 DUP3 ADD MSTORE PUSH14 0x151A5D1B19481C995C5D5A5C9959 PUSH1 0x92 SHL PUSH1 0x44 DUP3 ADD MSTORE PUSH1 0x64 SWAP1 REVERT JUMPDEST CALLVALUE PUSH2 0x19A JUMPI PUSH1 0x0 CALLDATASIZE PUSH1 0x3 NOT ADD SLT PUSH2 0x19A JUMPI PUSH1 0x40 MLOAD PUSH1 0x0 PUSH1 0x1 DUP1 SLOAD SWAP1 PUSH2 0x11C8 DUP3 PUSH2 0x1947 JUMP JUMPDEST DUP1 DUP6 MSTORE SWAP2 DUP2 DUP2 AND SWAP1 DUP2 ISZERO PUSH2 0x125C JUMPI POP PUSH1 0x1 EQ PUSH2 0x1203 JUMPI JUMPDEST PUSH2 0x812 DUP5 PUSH2 0x11EF DUP2 DUP7 SUB DUP3 PUSH2 0x1851 JUMP JUMPDEST PUSH1 0x40 MLOAD SWAP2 DUP3 SWAP2 PUSH1 0x20 DUP4 MSTORE PUSH1 0x20 DUP4 ADD SWAP1 PUSH2 0x1795 JUMP JUMPDEST PUSH1 0x0 DUP2 DUP2 MSTORE SWAP3 POP PUSH32 0xB10E2D527612073B26EECDFD717E6A320CF44B4AFAC2B0732D9FCBE2B7FA0CF6 JUMPDEST DUP3 DUP5 LT PUSH2 0x1244 JUMPI POP POP POP DUP2 ADD PUSH1 0x20 ADD PUSH2 0x11EF DUP3 PUSH2 0x11DF JUMP JUMPDEST DUP1 SLOAD PUSH1 0x20 DUP6 DUP8 ADD DUP2 ADD SWAP2 SWAP1 SWAP2 MSTORE SWAP1 SWAP4 ADD SWAP3 DUP2 ADD PUSH2 0x122C JUMP JUMPDEST PUSH1 0xFF NOT AND PUSH1 0x20 DUP1 DUP8 ADD SWAP2 SWAP1 SWAP2 MSTORE SWAP3 ISZERO ISZERO PUSH1 0x5 SHL DUP6 ADD SWAP1 SWAP3 ADD SWAP3 POP PUSH2 0x11EF SWAP2 POP DUP4 SWAP1 POP PUSH2 0x11DF JUMP JUMPDEST CALLVALUE PUSH2 0x19A JUMPI PUSH1 0x0 CALLDATASIZE PUSH1 0x3 NOT ADD SLT PUSH2 0x19A JUMPI PUSH1 0xA SLOAD PUSH1 0x40 MLOAD PUSH1 0x1 PUSH1 0x1 PUSH1 0xA0 SHL SUB SWAP1 SWAP2 AND DUP2 MSTORE PUSH1 0x20 SWAP1 RETURN JUMPDEST CALLVALUE PUSH2 0x19A JUMPI PUSH1 0x20 DUP1 PUSH1 0x3 NOT CALLDATASIZE ADD SLT PUSH2 0x19A JUMPI PUSH2 0x12C6 PUSH2 0x17BA JUMP JUMPDEST PUSH2 0x12CF DUP2 PUSH2 0x190E JUMP JUMPDEST PUSH2 0x12D8 DUP2 PUSH2 0x1F28 JUMP JUMPDEST SWAP1 PUSH2 0x12E6 PUSH1 0x40 MLOAD SWAP3 DUP4 PUSH2 0x1851 JUMP JUMPDEST DUP1 DUP3 MSTORE PUSH2 0x12F2 DUP2 PUSH2 0x1F28 JUMP JUMPDEST DUP3 DUP6 ADD SWAP4 SWAP1 PUSH1 0x1F NOT ADD CALLDATASIZE DUP6 CALLDATACOPY PUSH1 0x0 JUMPDEST DUP3 DUP2 LT PUSH2 0x134C JUMPI POP POP POP SWAP1 PUSH1 0x40 MLOAD SWAP3 DUP4 SWAP3 DUP2 DUP5 ADD SWAP1 DUP3 DUP6 MSTORE MLOAD DUP1 SWAP2 MSTORE PUSH1 0x40 DUP5 ADD SWAP3 SWAP2 PUSH1 0x0 JUMPDEST DUP3 DUP2 LT PUSH2 0x1335 JUMPI POP POP POP POP SUB SWAP1 RETURN JUMPDEST DUP4 MLOAD DUP6 MSTORE DUP7 SWAP6 POP SWAP4 DUP2 ADD SWAP4 SWAP3 DUP2 ADD SWAP3 PUSH1 0x1 ADD PUSH2 0x1326 JUMP JUMPDEST PUSH2 0x1356 DUP2 DUP4 PUSH2 0x1CF4 JUMP JUMPDEST SWAP1 DUP5 MLOAD DUP2 LT ISZERO PUSH2 0x1377 JUMPI PUSH2 0x1372 SWAP2 DUP8 DUP3 PUSH1 0x5 SHL DUP8 ADD ADD MSTORE PUSH2 0x1ED9 JUMP JUMPDEST PUSH2 0x1301 JUMP JUMPDEST PUSH4 0x4E487B71 PUSH1 0xE0 SHL PUSH1 0x0 MSTORE PUSH1 0x32 PUSH1 0x4 MSTORE PUSH1 0x24 PUSH1 0x0 REVERT JUMPDEST CALLVALUE PUSH2 0x19A JUMPI PUSH1 0x0 CALLDATASIZE PUSH1 0x3 NOT ADD SLT PUSH2 0x19A JUMPI PUSH2 0x13A6 PUSH2 0x18E2 JUMP JUMPDEST PUSH1 0xA DUP1 SLOAD PUSH1 0x1 PUSH1 0x1 PUSH1 0xA0 SHL SUB NOT DUP2 AND SWAP1 SWAP2 SSTORE PUSH1 0x0 SWAP1 PUSH1 0x1 PUSH1 0x1 PUSH1 0xA0 SHL SUB AND PUSH32 0x8BE0079C531659141344CD1FD0A4F28419497F9722A3DAAFE3B4186F6B6457E0 DUP3 DUP1 LOG3 STOP JUMPDEST CALLVALUE PUSH2 0x19A JUMPI PUSH1 0x20 CALLDATASIZE PUSH1 0x3 NOT ADD SLT PUSH2 0x19A JUMPI PUSH1 0x20 PUSH2 0x140D PUSH2 0x1408 PUSH2 0x17BA JUMP JUMPDEST PUSH2 0x190E JUMP JUMPDEST PUSH1 0x40 MLOAD SWAP1 DUP2 MSTORE RETURN JUMPDEST CALLVALUE PUSH2 0x19A JUMPI PUSH1 0x20 CALLDATASIZE PUSH1 0x3 NOT ADD SLT PUSH2 0x19A JUMPI PUSH1 0x20 PUSH2 0x1433 PUSH1 0x4 CALLDATALOAD PUSH2 0x1CB9 JUMP JUMPDEST PUSH1 0x40 MLOAD PUSH1 0x1 PUSH1 0x1 PUSH1 0xA0 SHL SUB SWAP1 SWAP2 AND DUP2 MSTORE RETURN JUMPDEST CALLVALUE PUSH2 0x19A JUMPI PUSH1 0x20 CALLDATASIZE PUSH1 0x3 NOT ADD SLT PUSH2 0x19A JUMPI PUSH1 0x4 CALLDATALOAD PUSH1 0x8 SLOAD DUP2 LT ISZERO PUSH2 0x147C JUMPI PUSH2 0x146E PUSH1 0x20 SWAP2 PUSH2 0x1D54 JUMP JUMPDEST SWAP1 SLOAD PUSH1 0x40 MLOAD SWAP2 PUSH1 0x3 SHL SHR DUP2 MSTORE RETURN JUMPDEST PUSH1 0x44 SWAP1 PUSH1 0x40 MLOAD SWAP1 PUSH4 0x295F44F7 PUSH1 0xE2 SHL DUP3 MSTORE PUSH1 0x0 PUSH1 0x4 DUP4 ADD MSTORE PUSH1 0x24 DUP3 ADD MSTORE REVERT JUMPDEST CALLVALUE PUSH2 0x19A JUMPI PUSH2 0x897 PUSH2 0x14AC CALLDATASIZE PUSH2 0x17E6 JUMP JUMPDEST SWAP1 PUSH1 0x40 MLOAD SWAP3 PUSH2 0x14BA DUP5 PUSH2 0x1836 JUMP JUMPDEST PUSH1 0x0 DUP5 MSTORE PUSH2 0x891 DUP4 DUP4 DUP4 PUSH2 0x1A27 JUMP JUMPDEST CALLVALUE PUSH2 0x19A JUMPI PUSH1 0x40 CALLDATASIZE PUSH1 0x3 NOT ADD SLT PUSH2 0x19A JUMPI PUSH1 0x20 PUSH2 0x140D PUSH2 0x14E7 PUSH2 0x17BA JUMP JUMPDEST PUSH1 0x24 CALLDATALOAD SWAP1 PUSH2 0x1CF4 JUMP JUMPDEST CALLVALUE PUSH2 0x19A JUMPI PUSH2 0x897 PUSH2 0x1501 CALLDATASIZE PUSH2 0x17E6 JUMP JUMPDEST SWAP2 PUSH2 0x1A27 JUMP JUMPDEST CALLVALUE PUSH2 0x19A JUMPI PUSH1 0x0 CALLDATASIZE PUSH1 0x3 NOT ADD SLT PUSH2 0x19A JUMPI PUSH1 0x20 PUSH1 0x8 SLOAD PUSH1 0x40 MLOAD SWAP1 DUP2 MSTORE RETURN JUMPDEST CALLVALUE PUSH2 0x19A JUMPI PUSH1 0x40 CALLDATASIZE PUSH1 0x3 NOT ADD SLT PUSH2 0x19A JUMPI PUSH2 0x153E PUSH2 0x17BA JUMP JUMPDEST PUSH1 0x24 CALLDATALOAD PUSH2 0x154A DUP2 PUSH2 0x1CB9 JUMP JUMPDEST CALLER ISZERO ISZERO DUP1 PUSH2 0x15F9 JUMPI JUMPDEST DUP1 PUSH2 0x15CC JUMPI JUMPDEST PUSH2 0x15B4 JUMPI PUSH1 0x1 PUSH1 0x1 PUSH1 0xA0 SHL SUB SWAP3 DUP4 AND SWAP3 DUP3 SWAP2 DUP5 SWAP2 AND PUSH32 0x8C5BE1E5EBEC7D5BD14F71427D1E84F3DD0314C0F7B2291E5B200AC8C7C3B925 PUSH1 0x0 DUP1 LOG4 PUSH1 0x0 SWAP1 DUP2 MSTORE PUSH1 0x4 PUSH1 0x20 MSTORE PUSH1 0x40 SWAP1 KECCAK256 DUP1 SLOAD PUSH1 0x1 PUSH1 0x1 PUSH1 0xA0 SHL SUB NOT AND SWAP1 SWAP2 OR SWAP1 SSTORE STOP JUMPDEST PUSH1 0x40 MLOAD PUSH4 0xA9FBF51F PUSH1 0xE0 SHL DUP2 MSTORE CALLER PUSH1 0x4 DUP3 ADD MSTORE PUSH1 0x24 SWAP1 REVERT JUMPDEST POP PUSH1 0x1 DUP1 PUSH1 0xA0 SHL SUB DUP2 AND PUSH1 0x0 MSTORE PUSH1 0x5 PUSH1 0x20 MSTORE PUSH1 0x40 PUSH1 0x0 KECCAK256 CALLER PUSH1 0x0 MSTORE PUSH1 0x20 MSTORE PUSH1 0xFF PUSH1 0x40 PUSH1 0x0 KECCAK256 SLOAD AND ISZERO PUSH2 0x1559 JUMP JUMPDEST POP PUSH1 0x1 PUSH1 0x1 PUSH1 0xA0 SHL SUB DUP2 AND CALLER EQ ISZERO PUSH2 0x1553 JUMP JUMPDEST CALLVALUE PUSH2 0x19A JUMPI PUSH1 0x20 CALLDATASIZE PUSH1 0x3 NOT ADD SLT PUSH2 0x19A JUMPI PUSH1 0x4 CALLDATALOAD PUSH2 0x1629 DUP2 PUSH2 0x1CB9 JUMP JUMPDEST POP PUSH1 0x0 MSTORE PUSH1 0x4 PUSH1 0x20 MSTORE PUSH1 0x20 PUSH1 0x1 DUP1 PUSH1 0xA0 SHL SUB PUSH1 0x40 PUSH1 0x0 KECCAK256 SLOAD AND PUSH1 0x40 MLOAD SWAP1 DUP2 MSTORE RETURN JUMPDEST CALLVALUE PUSH2 0x19A JUMPI PUSH1 0x0 CALLDATASIZE PUSH1 0x3 NOT ADD SLT PUSH2 0x19A JUMPI PUSH1 0x40 MLOAD PUSH1 0x0 DUP1 SLOAD PUSH2 0x166B DUP2 PUSH2 0x1947 JUMP JUMPDEST DUP1 DUP5 MSTORE SWAP1 PUSH1 0x1 SWAP1 DUP2 DUP2 AND SWAP1 DUP2 ISZERO PUSH2 0x125C JUMPI POP PUSH1 0x1 EQ PUSH2 0x1694 JUMPI PUSH2 0x812 DUP5 PUSH2 0x11EF DUP2 DUP7 SUB DUP3 PUSH2 0x1851 JUMP JUMPDEST PUSH1 0x0 DUP1 DUP1 MSTORE SWAP3 POP PUSH32 0x290DECD9548B62A8D60345A988386FC84BA6BC95484008F6362F93160EF3E563 JUMPDEST DUP3 DUP5 LT PUSH2 0x16D5 JUMPI POP POP POP DUP2 ADD PUSH1 0x20 ADD PUSH2 0x11EF DUP3 PUSH2 0x11DF JUMP JUMPDEST DUP1 SLOAD PUSH1 0x20 DUP6 DUP8 ADD DUP2 ADD SWAP2 SWAP1 SWAP2 MSTORE SWAP1 SWAP4 ADD SWAP3 DUP2 ADD PUSH2 0x16BD JUMP JUMPDEST CALLVALUE PUSH2 0x19A JUMPI PUSH1 0x20 CALLDATASIZE PUSH1 0x3 NOT ADD SLT PUSH2 0x19A JUMPI PUSH1 0x4 CALLDATALOAD SWAP1 PUSH4 0xFFFFFFFF PUSH1 0xE0 SHL DUP3 AND DUP1 SWAP3 SUB PUSH2 0x19A JUMPI PUSH1 0x20 SWAP2 PUSH4 0x780E9D63 PUSH1 0xE0 SHL DUP2 EQ SWAP1 DUP2 ISZERO PUSH2 0x172F JUMPI JUMPDEST POP ISZERO ISZERO DUP2 MSTORE RETURN JUMPDEST PUSH4 0x80AC58CD PUSH1 0xE0 SHL DUP2 EQ SWAP2 POP DUP2 ISZERO PUSH2 0x1761 JUMPI JUMPDEST DUP2 ISZERO PUSH2 0x1750 JUMPI JUMPDEST POP DUP4 PUSH2 0x1728 JUMP JUMPDEST PUSH4 0x1FFC9A7 PUSH1 0xE0 SHL EQ SWAP1 POP DUP4 PUSH2 0x1749 JUMP JUMPDEST PUSH4 0x5B5E139F PUSH1 0xE0 SHL DUP2 EQ SWAP2 POP PUSH2 0x1742 JUMP JUMPDEST PUSH1 0x0 JUMPDEST DUP4 DUP2 LT PUSH2 0x1785 JUMPI POP POP PUSH1 0x0 SWAP2 ADD MSTORE JUMP JUMPDEST DUP2 DUP2 ADD MLOAD DUP4 DUP3 ADD MSTORE PUSH1 0x20 ADD PUSH2 0x1775 JUMP JUMPDEST SWAP1 PUSH1 0x20 SWAP2 PUSH2 0x17AE DUP2 MLOAD DUP1 SWAP3 DUP2 DUP6 MSTORE DUP6 DUP1 DUP7 ADD SWAP2 ADD PUSH2 0x1772 JUMP JUMPDEST PUSH1 0x1F ADD PUSH1 0x1F NOT AND ADD ADD SWAP1 JUMP JUMPDEST PUSH1 0x4 CALLDATALOAD SWAP1 PUSH1 0x1 PUSH1 0x1 PUSH1 0xA0 SHL SUB DUP3 AND DUP3 SUB PUSH2 0x19A JUMPI JUMP JUMPDEST PUSH1 0x24 CALLDATALOAD SWAP1 PUSH1 0x1 PUSH1 0x1 PUSH1 0xA0 SHL SUB DUP3 AND DUP3 SUB PUSH2 0x19A JUMPI JUMP JUMPDEST PUSH1 0x60 SWAP1 PUSH1 0x3 NOT ADD SLT PUSH2 0x19A JUMPI PUSH1 0x1 PUSH1 0x1 PUSH1 0xA0 SHL SUB SWAP1 PUSH1 0x4 CALLDATALOAD DUP3 DUP2 AND DUP2 SUB PUSH2 0x19A JUMPI SWAP2 PUSH1 0x24 CALLDATALOAD SWAP1 DUP2 AND DUP2 SUB PUSH2 0x19A JUMPI SWAP1 PUSH1 0x44 CALLDATALOAD SWAP1 JUMP JUMPDEST PUSH1 0xC0 DUP2 ADD SWAP1 DUP2 LT PUSH1 0x1 PUSH1 0x1 PUSH1 0x40 SHL SUB DUP3 GT OR PUSH2 0x816 JUMPI PUSH1 0x40 MSTORE JUMP JUMPDEST PUSH1 0x20 DUP2 ADD SWAP1 DUP2 LT PUSH1 0x1 PUSH1 0x1 PUSH1 0x40 SHL SUB DUP3 GT OR PUSH2 0x816 JUMPI PUSH1 0x40 MSTORE JUMP JUMPDEST SWAP1 PUSH1 0x1F DUP1 NOT SWAP2 ADD AND DUP2 ADD SWAP1 DUP2 LT PUSH1 0x1 PUSH1 0x1 PUSH1 0x40 SHL SUB DUP3 GT OR PUSH2 0x816 JUMPI PUSH1 0x40 MSTORE JUMP JUMPDEST PUSH1 0x1 PUSH1 0x1 PUSH1 0x40 SHL SUB DUP2 GT PUSH2 0x816 JUMPI PUSH1 0x1F ADD PUSH1 0x1F NOT AND PUSH1 0x20 ADD SWAP1 JUMP JUMPDEST SWAP3 SWAP2 SWAP3 PUSH2 0x1899 DUP3 PUSH2 0x1872 JUMP JUMPDEST SWAP2 PUSH2 0x18A7 PUSH1 0x40 MLOAD SWAP4 DUP5 PUSH2 0x1851 JUMP JUMPDEST DUP3 SWAP5 DUP2 DUP5 MSTORE DUP2 DUP4 ADD GT PUSH2 0x19A JUMPI DUP3 DUP2 PUSH1 0x20 SWAP4 DUP5 PUSH1 0x0 SWAP7 ADD CALLDATACOPY ADD ADD MSTORE JUMP JUMPDEST SWAP1 DUP1 PUSH1 0x1F DUP4 ADD SLT ISZERO PUSH2 0x19A JUMPI DUP2 PUSH1 0x20 PUSH2 0x18DF SWAP4 CALLDATALOAD SWAP2 ADD PUSH2 0x188D JUMP JUMPDEST SWAP1 JUMP JUMPDEST PUSH1 0xA SLOAD PUSH1 0x1 PUSH1 0x1 PUSH1 0xA0 SHL SUB AND CALLER SUB PUSH2 0x18F6 JUMPI JUMP JUMPDEST PUSH1 0x40 MLOAD PUSH4 0x118CDAA7 PUSH1 0xE0 SHL DUP2 MSTORE CALLER PUSH1 0x4 DUP3 ADD MSTORE PUSH1 0x24 SWAP1 REVERT JUMPDEST PUSH1 0x1 PUSH1 0x1 PUSH1 0xA0 SHL SUB AND DUP1 ISZERO PUSH2 0x192E JUMPI PUSH1 0x0 MSTORE PUSH1 0x3 PUSH1 0x20 MSTORE PUSH1 0x40 PUSH1 0x0 KECCAK256 SLOAD SWAP1 JUMP JUMPDEST PUSH1 0x40 MLOAD PUSH4 0x22718AD9 PUSH1 0xE2 SHL DUP2 MSTORE PUSH1 0x0 PUSH1 0x4 DUP3 ADD MSTORE PUSH1 0x24 SWAP1 REVERT JUMPDEST SWAP1 PUSH1 0x1 DUP3 DUP2 SHR SWAP3 AND DUP1 ISZERO PUSH2 0x1977 JUMPI JUMPDEST PUSH1 0x20 DUP4 LT EQ PUSH2 0x1961 JUMPI JUMP JUMPDEST PUSH4 0x4E487B71 PUSH1 0xE0 SHL PUSH1 0x0 MSTORE PUSH1 0x22 PUSH1 0x4 MSTORE PUSH1 0x24 PUSH1 0x0 REVERT JUMPDEST SWAP2 PUSH1 0x7F AND SWAP2 PUSH2 0x1956 JUMP JUMPDEST SWAP1 PUSH1 0x40 MLOAD SWAP2 DUP3 PUSH1 0x0 DUP3 SLOAD SWAP3 PUSH2 0x1995 DUP5 PUSH2 0x1947 JUMP JUMPDEST SWAP1 DUP2 DUP5 MSTORE PUSH1 0x1 SWAP5 DUP6 DUP2 AND SWAP1 DUP2 PUSH1 0x0 EQ PUSH2 0x1A04 JUMPI POP PUSH1 0x1 EQ PUSH2 0x19C1 JUMPI JUMPDEST POP POP PUSH2 0x19BF SWAP3 POP SUB DUP4 PUSH2 0x1851 JUMP JUMPDEST JUMP JUMPDEST SWAP1 SWAP4 SWAP2 POP PUSH1 0x0 MSTORE PUSH1 0x20 SWAP1 DUP2 PUSH1 0x0 KECCAK256 SWAP4 PUSH1 0x0 SWAP2 JUMPDEST DUP2 DUP4 LT PUSH2 0x19EC JUMPI POP POP PUSH2 0x19BF SWAP4 POP DUP3 ADD ADD CODESIZE DUP1 PUSH2 0x19B1 JUMP JUMPDEST DUP6 SLOAD DUP9 DUP5 ADD DUP6 ADD MSTORE SWAP5 DUP6 ADD SWAP5 DUP8 SWAP5 POP SWAP2 DUP4 ADD SWAP2 PUSH2 0x19D4 JUMP JUMPDEST SWAP2 POP POP PUSH2 0x19BF SWAP5 POP PUSH1 0x20 SWAP3 POP PUSH1 0xFF NOT AND DUP3 DUP5 ADD MSTORE ISZERO ISZERO PUSH1 0x5 SHL DUP3 ADD ADD CODESIZE DUP1 PUSH2 0x19B1 JUMP JUMPDEST PUSH1 0x1 PUSH1 0x1 PUSH1 0xA0 SHL SUB DUP3 DUP2 AND SWAP4 SWAP2 DUP5 ISZERO PUSH2 0x10E5 JUMPI PUSH1 0x0 SWAP5 DUP4 DUP7 MSTORE PUSH1 0x20 SWAP6 PUSH1 0x2 DUP8 MSTORE PUSH1 0x40 SWAP7 DUP5 DUP9 DUP4 KECCAK256 SLOAD AND SWAP7 CALLER ISZERO ISZERO DUP1 PUSH2 0x1C2B JUMPI JUMPDEST POP DUP8 ISZERO DUP1 ISZERO PUSH2 0x1BF8 JUMPI JUMPDEST DUP5 DUP5 MSTORE PUSH1 0x3 DUP4 MSTORE DUP10 DUP5 KECCAK256 DUP1 SLOAD PUSH1 0x1 ADD SWAP1 SSTORE DUP8 DUP5 MSTORE PUSH1 0x2 DUP4 MSTORE DUP10 DUP5 KECCAK256 DUP1 SLOAD PUSH1 0x1 PUSH1 0x1 PUSH1 0xA0 SHL SUB NOT AND DUP7 OR SWAP1 SSTORE DUP8 DUP6 DUP11 PUSH32 0xDDF252AD1BE2C89B69C2B068FC378DAA952BA7F163C4A11628F55A4DF523B3EF DUP8 DUP1 LOG4 ISZERO PUSH2 0x1B8C JUMPI PUSH1 0x8 SLOAD DUP8 DUP5 MSTORE PUSH1 0x9 DUP4 MSTORE DUP1 DUP11 DUP6 KECCAK256 SSTORE PUSH1 0x1 PUSH1 0x40 SHL DUP2 LT ISZERO PUSH2 0x1B78 JUMPI DUP8 PUSH2 0xA9C DUP3 PUSH1 0x1 PUSH2 0x1AEA SWAP5 ADD PUSH1 0x8 SSTORE PUSH2 0x1D54 JUMP JUMPDEST DUP4 DUP9 SUB PUSH2 0x1B26 JUMPI JUMPDEST POP POP POP POP AND SWAP3 DUP4 DUP4 SUB PUSH2 0x1B05 JUMPI POP POP POP POP JUMP JUMPDEST PUSH1 0x64 SWAP5 POP MLOAD SWAP3 PUSH4 0x64283D7B PUSH1 0xE0 SHL DUP5 MSTORE PUSH1 0x4 DUP5 ADD MSTORE PUSH1 0x24 DUP4 ADD MSTORE PUSH1 0x44 DUP3 ADD MSTORE REVERT JUMPDEST PUSH2 0x1B2F SWAP1 PUSH2 0x190E JUMP JUMPDEST PUSH1 0x0 NOT DUP2 ADD SWAP4 SWAP1 DUP5 GT PUSH2 0x1B64 JUMPI DUP3 SWAP2 PUSH1 0x7 SWAP2 DUP11 SWAP5 MSTORE PUSH1 0x6 DUP2 MSTORE DUP4 DUP4 KECCAK256 DUP6 DUP5 MSTORE DUP2 MSTORE DUP8 DUP5 DUP5 KECCAK256 SSTORE DUP8 DUP4 MSTORE MSTORE KECCAK256 SSTORE CODESIZE DUP1 DUP1 DUP1 PUSH2 0x1AF2 JUMP JUMPDEST PUSH4 0x4E487B71 PUSH1 0xE0 SHL DUP4 MSTORE PUSH1 0x11 PUSH1 0x4 MSTORE PUSH1 0x24 DUP4 REVERT JUMPDEST PUSH4 0x4E487B71 PUSH1 0xE0 SHL DUP5 MSTORE PUSH1 0x41 PUSH1 0x4 MSTORE PUSH1 0x24 DUP5 REVERT JUMPDEST DUP8 DUP5 EQ PUSH2 0x1AEA JUMPI PUSH2 0x1B9C DUP9 PUSH2 0x190E JUMP JUMPDEST DUP8 DUP5 MSTORE PUSH1 0x7 DUP4 MSTORE DUP10 DUP5 KECCAK256 SLOAD SWAP1 DUP10 DUP6 MSTORE PUSH1 0x6 DUP5 MSTORE DUP11 DUP6 KECCAK256 SWAP2 DUP2 DUP2 SUB PUSH2 0x1BD6 JUMPI JUMPDEST POP DUP9 DUP6 MSTORE PUSH1 0x7 DUP5 MSTORE DUP5 DUP12 DUP2 KECCAK256 SSTORE DUP5 MSTORE DUP3 MSTORE DUP3 DUP10 DUP2 KECCAK256 SSTORE PUSH2 0x1AEA JUMP JUMPDEST DUP2 DUP7 MSTORE DUP3 DUP6 MSTORE DUP12 DUP7 KECCAK256 SLOAD DUP2 DUP8 MSTORE DUP1 DUP14 DUP9 KECCAK256 SSTORE DUP7 MSTORE PUSH1 0x7 DUP6 MSTORE DUP12 DUP7 KECCAK256 SSTORE CODESIZE PUSH2 0x1BBB JUMP JUMPDEST PUSH1 0x0 DUP9 DUP2 MSTORE PUSH1 0x4 PUSH1 0x20 MSTORE PUSH1 0x40 SWAP1 KECCAK256 DUP1 SLOAD PUSH1 0x1 PUSH1 0x1 PUSH1 0xA0 SHL SUB NOT AND SWAP1 SSTORE DUP9 DUP5 MSTORE PUSH1 0x3 DUP4 MSTORE DUP10 DUP5 KECCAK256 DUP1 SLOAD PUSH1 0x0 NOT ADD SWAP1 SSTORE PUSH2 0x1A64 JUMP JUMPDEST DUP1 PUSH2 0x1C78 JUMPI JUMPDEST ISZERO PUSH2 0x1C3C JUMPI CODESIZE PUSH2 0x1A5A JUMP JUMPDEST DUP9 DUP8 DUP10 PUSH2 0x1C59 JUMPI PUSH1 0x24 SWAP2 MLOAD SWAP1 PUSH4 0x7E273289 PUSH1 0xE0 SHL DUP3 MSTORE PUSH1 0x4 DUP3 ADD MSTORE REVERT JUMPDEST SWAP1 MLOAD PUSH4 0x177E802F PUSH1 0xE0 SHL DUP2 MSTORE CALLER PUSH1 0x4 DUP3 ADD MSTORE PUSH1 0x24 DUP2 ADD SWAP2 SWAP1 SWAP2 MSTORE PUSH1 0x44 SWAP1 REVERT JUMPDEST POP CALLER DUP9 EQ DUP1 ISZERO PUSH2 0x1C9D JUMPI JUMPDEST DUP1 PUSH2 0x1C31 JUMPI POP DUP7 DUP4 MSTORE PUSH1 0x4 DUP3 MSTORE CALLER DUP7 DUP11 DUP6 KECCAK256 SLOAD AND EQ PUSH2 0x1C31 JUMP JUMPDEST POP DUP8 DUP4 MSTORE PUSH1 0x5 DUP3 MSTORE DUP9 DUP4 KECCAK256 CALLER DUP5 MSTORE DUP3 MSTORE PUSH1 0xFF DUP10 DUP5 KECCAK256 SLOAD AND PUSH2 0x1C83 JUMP JUMPDEST PUSH1 0x0 DUP2 DUP2 MSTORE PUSH1 0x2 PUSH1 0x20 MSTORE PUSH1 0x40 SWAP1 KECCAK256 SLOAD PUSH1 0x1 PUSH1 0x1 PUSH1 0xA0 SHL SUB AND SWAP1 DUP2 ISZERO PUSH2 0x1CDC JUMPI POP SWAP1 JUMP JUMPDEST PUSH1 0x24 SWAP1 PUSH1 0x40 MLOAD SWAP1 PUSH4 0x7E273289 PUSH1 0xE0 SHL DUP3 MSTORE PUSH1 0x4 DUP3 ADD MSTORE REVERT JUMPDEST PUSH2 0x1CFD DUP2 PUSH2 0x190E JUMP JUMPDEST DUP3 LT ISZERO PUSH2 0x1D29 JUMPI PUSH1 0x1 DUP1 PUSH1 0xA0 SHL SUB AND PUSH1 0x0 MSTORE PUSH1 0x6 PUSH1 0x20 MSTORE PUSH1 0x40 PUSH1 0x0 KECCAK256 SWAP1 PUSH1 0x0 MSTORE PUSH1 0x20 MSTORE PUSH1 0x40 PUSH1 0x0 KECCAK256 SLOAD SWAP1 JUMP JUMPDEST PUSH1 0x40 MLOAD PUSH4 0x295F44F7 PUSH1 0xE2 SHL DUP2 MSTORE PUSH1 0x1 PUSH1 0x1 PUSH1 0xA0 SHL SUB SWAP2 SWAP1 SWAP2 AND PUSH1 0x4 DUP3 ADD MSTORE PUSH1 0x24 DUP2 ADD SWAP2 SWAP1 SWAP2 MSTORE PUSH1 0x44 SWAP1 REVERT JUMPDEST PUSH1 0x8 SLOAD DUP2 LT ISZERO PUSH2 0x1377 JUMPI PUSH1 0x8 PUSH1 0x0 MSTORE PUSH32 0xF3F7A9FE364FAAB93B216DA50A3214154F22A0A2B415B23A84C8169E8B636EE3 ADD SWAP1 PUSH1 0x0 SWAP1 JUMP JUMPDEST SWAP1 SWAP4 SWAP2 SWAP3 DUP4 EXTCODESIZE PUSH2 0x1D9D JUMPI JUMPDEST POP POP POP POP POP JUMP JUMPDEST PUSH1 0x40 MLOAD PUSH4 0xA85BD01 PUSH1 0xE1 SHL DUP1 DUP3 MSTORE PUSH1 0x1 PUSH1 0x1 PUSH1 0xA0 SHL SUB SWAP4 DUP5 AND PUSH1 0x4 DUP4 ADD MSTORE SWAP6 DUP4 AND PUSH1 0x24 DUP3 ADD MSTORE PUSH1 0x44 DUP2 ADD SWAP2 SWAP1 SWAP2 MSTORE PUSH1 0x80 PUSH1 0x64 DUP3 ADD MSTORE SWAP5 SWAP3 AND SWAP3 PUSH1 0x20 SWAP3 SWAP2 DUP6 SWAP1 PUSH2 0x1DEA SWAP1 PUSH1 0x84 DUP4 ADD SWAP1 PUSH2 0x1795 JUMP JUMPDEST SUB SWAP5 DUP4 DUP2 PUSH1 0x0 SWAP8 DUP2 DUP10 DUP10 GAS CALL DUP7 SWAP2 DUP2 PUSH2 0x1E95 JUMPI JUMPDEST POP PUSH2 0x1E5F JUMPI POP POP POP RETURNDATASIZE PUSH1 0x0 EQ PUSH2 0x1E56 JUMPI RETURNDATASIZE PUSH2 0x1E18 DUP2 PUSH2 0x1872 JUMP JUMPDEST SWAP1 PUSH2 0x1E26 PUSH1 0x40 MLOAD SWAP3 DUP4 PUSH2 0x1851 JUMP JUMPDEST DUP2 MSTORE DUP1 SWAP4 DUP3 RETURNDATASIZE SWAP3 ADD RETURNDATACOPY JUMPDEST DUP3 MLOAD SWAP3 DUP4 PUSH2 0x1E51 JUMPI PUSH1 0x40 MLOAD PUSH4 0x32505749 PUSH1 0xE1 SHL DUP2 MSTORE PUSH1 0x4 DUP2 ADD DUP5 SWAP1 MSTORE PUSH1 0x24 SWAP1 REVERT JUMPDEST ADD SWAP1 POP REVERT JUMPDEST PUSH1 0x60 SWAP3 POP PUSH2 0x1E30 JUMP JUMPDEST SWAP2 SWAP5 POP SWAP2 POP PUSH4 0xFFFFFFFF PUSH1 0xE0 SHL AND SUB PUSH2 0x1E7D JUMPI POP CODESIZE DUP1 DUP1 DUP1 DUP1 PUSH2 0x1D96 JUMP JUMPDEST PUSH1 0x24 SWAP1 PUSH1 0x40 MLOAD SWAP1 PUSH4 0x32505749 PUSH1 0xE1 SHL DUP3 MSTORE PUSH1 0x4 DUP3 ADD MSTORE REVERT JUMPDEST SWAP1 SWAP2 POP DUP5 DUP2 DUP2 RETURNDATASIZE DUP4 GT PUSH2 0x1ED2 JUMPI JUMPDEST PUSH2 0x1EAD DUP2 DUP4 PUSH2 0x1851 JUMP JUMPDEST DUP2 ADD SUB SLT PUSH2 0x1ECE JUMPI MLOAD PUSH1 0x1 PUSH1 0x1 PUSH1 0xE0 SHL SUB NOT DUP2 AND DUP2 SUB PUSH2 0x1ECE JUMPI SWAP1 CODESIZE PUSH2 0x1DFE JUMP JUMPDEST DUP7 DUP1 REVERT JUMPDEST POP RETURNDATASIZE PUSH2 0x1EA3 JUMP JUMPDEST PUSH1 0x0 NOT DUP2 EQ PUSH2 0x1011 JUMPI PUSH1 0x1 ADD SWAP1 JUMP JUMPDEST ISZERO PUSH2 0x1EEF JUMPI JUMP JUMPDEST PUSH1 0x40 MLOAD PUSH3 0x461BCD PUSH1 0xE5 SHL DUP2 MSTORE PUSH1 0x20 PUSH1 0x4 DUP3 ADD MSTORE PUSH1 0x11 PUSH1 0x24 DUP3 ADD MSTORE PUSH17 0x2737B732BC34B9BA32B73A103A37B5B2B7 PUSH1 0x79 SHL PUSH1 0x44 DUP3 ADD MSTORE PUSH1 0x64 SWAP1 REVERT JUMPDEST PUSH1 0x1 PUSH1 0x1 PUSH1 0x40 SHL SUB DUP2 GT PUSH2 0x816 JUMPI PUSH1 0x5 SHL PUSH1 0x20 ADD SWAP1 JUMP JUMPDEST SWAP1 PUSH2 0x1F49 DUP3 PUSH2 0x1872 JUMP JUMPDEST PUSH2 0x1F56 PUSH1 0x40 MLOAD SWAP2 DUP3 PUSH2 0x1851 JUMP JUMPDEST DUP3 DUP2 MSTORE DUP1 SWAP3 PUSH2 0x1F67 PUSH1 0x1F NOT SWAP2 PUSH2 0x1872 JUMP JUMPDEST ADD SWAP1 PUSH1 0x20 CALLDATASIZE SWAP2 ADD CALLDATACOPY JUMP JUMPDEST DUP1 MLOAD ISZERO PUSH2 0x2054 JUMPI DUP1 MLOAD PUSH1 0x2 SWAP2 DUP3 DUP3 ADD DUP1 SWAP3 GT PUSH2 0x1011 JUMPI PUSH1 0x3 SWAP2 DUP3 SWAP1 DIV PUSH1 0x1 PUSH1 0x1 PUSH1 0xFE SHL SUB DUP2 AND DUP2 SUB PUSH2 0x1011 JUMPI PUSH2 0x1FAA SWAP1 DUP5 SWAP6 SWAP5 SHL PUSH2 0x1F3F JUMP JUMPDEST SWAP4 PUSH1 0x20 DUP6 ADD SWAP4 DUP3 SWAP2 DUP4 MLOAD DUP5 ADD SWAP1 PUSH1 0x20 DUP3 ADD SWAP3 DUP4 MLOAD SWAP5 PUSH1 0x0 DUP6 MSTORE JUMPDEST DUP4 DUP2 LT PUSH2 0x2003 JUMPI POP POP POP POP MSTORE MLOAD MOD DUP1 PUSH1 0x1 EQ PUSH2 0x1FF0 JUMPI PUSH1 0x2 EQ PUSH2 0x1FE5 JUMPI POP SWAP1 JUMP JUMPDEST PUSH1 0x3D SWAP1 PUSH1 0x0 NOT ADD MSTORE8 SWAP1 JUMP JUMPDEST POP PUSH1 0x3D SWAP1 DUP2 PUSH1 0x0 NOT DUP3 ADD MSTORE8 PUSH1 0x1 NOT ADD MSTORE8 SWAP1 JUMP JUMPDEST DUP8 PUSH1 0x4 SWAP2 SWAP10 SWAP3 SWAP4 SWAP5 SWAP10 ADD SWAP2 DUP3 MLOAD PUSH1 0x1 SWAP1 PUSH1 0x3F SWAP1 DUP3 DUP3 DUP3 PUSH1 0x12 SHR AND DUP9 ADD ADD MLOAD DUP5 MSTORE8 DUP3 DUP3 DUP3 PUSH1 0xC SHR AND DUP9 ADD ADD MLOAD DUP4 DUP6 ADD MSTORE8 DUP3 DUP3 DUP3 PUSH1 0x6 SHR AND DUP9 ADD ADD MLOAD DUP9 DUP6 ADD MSTORE8 AND DUP6 ADD ADD MLOAD DUP10 DUP3 ADD MSTORE8 ADD SWAP8 SWAP3 SWAP2 SWAP1 PUSH2 0x1FC4 JUMP JUMPDEST POP POP PUSH1 0x40 MLOAD PUSH2 0x2062 DUP2 PUSH2 0x1836 JUMP JUMPDEST PUSH1 0x0 DUP2 MSTORE SWAP1 JUMP JUMPDEST DUP1 PUSH1 0x0 SWAP2 PUSH27 0x184F03E93FF9F4DAA797ED6E38ED64BF6A1F010000000000000000 DUP1 DUP3 LT ISZERO PUSH2 0x219E JUMPI JUMPDEST POP PUSH14 0x4EE2D6D415B85ACEF8100000000 DUP1 DUP4 LT ISZERO PUSH2 0x218F JUMPI JUMPDEST POP PUSH7 0x2386F26FC10000 DUP1 DUP4 LT ISZERO PUSH2 0x2180 JUMPI JUMPDEST POP PUSH4 0x5F5E100 DUP1 DUP4 LT ISZERO PUSH2 0x2171 JUMPI JUMPDEST POP PUSH2 0x2710 DUP1 DUP4 LT ISZERO PUSH2 0x2162 JUMPI JUMPDEST POP PUSH1 0x64 DUP3 LT ISZERO PUSH2 0x2152 JUMPI JUMPDEST PUSH1 0xA DUP1 SWAP3 LT ISZERO PUSH2 0x2148 JUMPI JUMPDEST PUSH1 0x1 SWAP1 DUP2 PUSH1 0x21 PUSH2 0x2100 DUP3 DUP8 ADD PUSH2 0x1F3F JUMP JUMPDEST SWAP6 DUP7 ADD ADD SWAP1 JUMPDEST PUSH2 0x2112 JUMPI JUMPDEST POP POP POP POP SWAP1 JUMP JUMPDEST PUSH1 0x0 NOT ADD SWAP1 DUP4 SWAP1 PUSH16 0x181899199A1A9B1B9C1CB0B131B232B3 PUSH1 0x81 SHL DUP3 DUP3 MOD BYTE DUP4 MSTORE8 DIV SWAP2 DUP3 ISZERO PUSH2 0x2143 JUMPI SWAP2 SWAP1 DUP3 PUSH2 0x2106 JUMP JUMPDEST PUSH2 0x210B JUMP JUMPDEST SWAP2 PUSH1 0x1 ADD SWAP2 PUSH2 0x20EF JUMP JUMPDEST SWAP2 SWAP1 PUSH1 0x64 PUSH1 0x2 SWAP2 DIV SWAP2 ADD SWAP2 PUSH2 0x20E4 JUMP JUMPDEST PUSH1 0x4 SWAP2 SWAP4 SWAP3 DIV SWAP2 ADD SWAP2 CODESIZE PUSH2 0x20D9 JUMP JUMPDEST PUSH1 0x8 SWAP2 SWAP4 SWAP3 DIV SWAP2 ADD SWAP2 CODESIZE PUSH2 0x20CC JUMP JUMPDEST PUSH1 0x10 SWAP2 SWAP4 SWAP3 DIV SWAP2 ADD SWAP2 CODESIZE PUSH2 0x20BD JUMP JUMPDEST PUSH1 0x20 SWAP2 SWAP4 SWAP3 DIV SWAP2 ADD SWAP2 CODESIZE PUSH2 0x20AB JUMP JUMPDEST PUSH1 0x40 SWAP4 POP DUP2 DIV SWAP2 POP CODESIZE PUSH2 0x2092 JUMP JUMPDEST PUSH1 0x40 MLOAD SWAP1 PUSH1 0x1 PUSH1 0x1 PUSH1 0xA0 SHL SUB AND DUP1 PUSH1 0x60 DUP4 ADD PUSH1 0x1 PUSH1 0x1 PUSH1 0x40 SHL SUB DUP2 GT DUP5 DUP3 LT OR PUSH2 0x816 JUMPI PUSH1 0x40 MSTORE PUSH1 0x2A DUP4 MSTORE PUSH1 0x20 DUP4 ADD PUSH1 0x40 CALLDATASIZE DUP3 CALLDATACOPY DUP4 MLOAD ISZERO PUSH2 0x1377 JUMPI PUSH1 0x30 SWAP1 MSTORE8 DUP3 MLOAD PUSH1 0x1 SWAP1 DUP2 LT ISZERO PUSH2 0x1377 JUMPI PUSH1 0x78 PUSH1 0x21 DUP6 ADD MSTORE8 PUSH1 0x29 SWAP1 JUMPDEST DUP1 DUP3 GT PUSH2 0x2232 JUMPI POP POP PUSH2 0x2213 JUMPI POP SWAP1 JUMP JUMPDEST PUSH1 0x44 SWAP1 PUSH1 0x40 MLOAD SWAP1 PUSH4 0xE22E27EB PUSH1 0xE0 SHL DUP3 MSTORE PUSH1 0x4 DUP3 ADD MSTORE PUSH1 0x14 PUSH1 0x24 DUP3 ADD MSTORE REVERT JUMPDEST SWAP1 SWAP2 PUSH1 0xF DUP2 AND PUSH1 0x10 DUP2 LT ISZERO PUSH2 0x228B JUMPI PUSH16 0x181899199A1A9B1B9C1CB0B131B232B3 PUSH1 0x81 SHL SWAP1 BYTE PUSH2 0x2261 DUP5 DUP8 PUSH2 0x22A0 JUMP JUMPDEST MSTORE8 PUSH1 0x4 SHR SWAP2 DUP1 ISZERO PUSH2 0x2276 JUMPI PUSH1 0x0 NOT ADD SWAP1 PUSH2 0x2202 JUMP JUMPDEST PUSH1 0x24 PUSH1 0x0 PUSH4 0x4E487B71 PUSH1 0xE0 SHL DUP2 MSTORE PUSH1 0x11 PUSH1 0x4 MSTORE REVERT JUMPDEST PUSH1 0x24 PUSH1 0x0 PUSH4 0x4E487B71 PUSH1 0xE0 SHL DUP2 MSTORE PUSH1 0x32 PUSH1 0x4 MSTORE REVERT JUMPDEST SWAP1 DUP2 MLOAD DUP2 LT ISZERO PUSH2 0x1377 JUMPI ADD PUSH1 0x20 ADD SWAP1 JUMP JUMPDEST SWAP1 DUP2 MLOAD SWAP2 PUSH1 0x1 SWAP3 DUP1 DUP5 SHL SWAP1 DUP1 DUP3 DIV PUSH1 0x2 EQ SWAP1 ISZERO OR ISZERO PUSH2 0x1011 JUMPI PUSH2 0x22D3 SWAP1 PUSH2 0x1F3F JUMP JUMPDEST SWAP3 PUSH1 0x0 SWAP2 DUP3 DUP3 JUMPDEST PUSH2 0x232E JUMPI JUMPDEST POP POP POP PUSH2 0x22EB DUP2 PUSH2 0x1F3F JUMP JUMPDEST SWAP1 PUSH1 0x0 JUMPDEST DUP2 DUP2 LT PUSH2 0x22FD JUMPI POP SWAP1 SWAP3 POP POP JUMP JUMPDEST PUSH2 0x2329 SWAP1 PUSH1 0x1 PUSH1 0x1 PUSH1 0xF8 SHL SUB NOT PUSH2 0x2314 DUP3 DUP9 PUSH2 0x22A0 JUMP JUMPDEST MLOAD AND PUSH1 0x0 BYTE PUSH2 0x2323 DUP3 DUP7 PUSH2 0x22A0 JUMP JUMPDEST MSTORE8 PUSH2 0x1ED9 JUMP JUMPDEST PUSH2 0x22EF JUMP JUMPDEST DUP2 MLOAD DUP2 LT ISZERO PUSH2 0x23B0 JUMPI PUSH2 0x2391 SWAP1 PUSH1 0x1 PUSH1 0x1 PUSH1 0xF8 SHL SUB NOT PUSH2 0x234E DUP3 DUP6 PUSH2 0x22A0 JUMP JUMPDEST MLOAD AND SWAP5 PUSH1 0x11 PUSH1 0xF9 SHL DUP7 EQ DUP1 ISZERO PUSH2 0x23A3 JUMPI JUMPDEST ISZERO PUSH2 0x2397 JUMPI PUSH1 0x5C PUSH2 0x2379 PUSH2 0x2372 DUP4 PUSH2 0x1ED9 JUMP JUMPDEST SWAP3 DUP11 PUSH2 0x22A0 JUMP JUMPDEST MSTORE8 PUSH2 0x2323 PUSH2 0x2386 DUP3 PUSH2 0x1ED9 JUMP JUMPDEST SWAP7 PUSH1 0x0 BYTE SWAP2 DUP10 PUSH2 0x22A0 JUMP JUMPDEST DUP3 PUSH2 0x22DA JUMP JUMPDEST PUSH2 0x2323 PUSH2 0x2386 DUP3 PUSH2 0x1ED9 JUMP JUMPDEST POP PUSH1 0x17 PUSH1 0xFA SHL DUP7 EQ PUSH2 0x235F JUMP JUMPDEST PUSH2 0x22DF JUMP INVALID LOG2 PUSH5 0x6970667358 0x22 SLT KECCAK256 0x4B ADD 0xE5 0xD5 NUMBER 0xE7 0xBF PUSH5 0x6E10D50EAF 0x5D 0xE4 0x4D 0xDD DIV PUSH25 0x64B16C0E493267E2ECFCC9BA2F64736F6C6343000814003300 "},"methodIdentifiers":{"approve(address,uint256)":"095ea7b3","balanceOf(address)":"70a08231","getApproved(uint256)":"081812fc","getBook(uint256)":"e0ff5b8b","isApprovedForAll(address,address)":"e985e9c5","mintBook(string,string,uint256,string)":"a139d3d0","name()":"06fdde03","owner()":"8da5cb5b","ownerOf(uint256)":"6352211e","renounceOwnership()":"715018a6","safeTransferFrom(address,address,uint256)":"42842e0e","safeTransferFrom(address,address,uint256,bytes)":"b88d4fde","setApprovalForAll(address,bool)":"a22cb465","supportsInterface(bytes4)":"01ffc9a7","symbol()":"95d89b41","tokenByIndex(uint256)":"4f6ccce7","tokenOfOwnerByIndex(address,uint256)":"2f745c59","tokenURI(uint256)":"c87b56dd","tokensOfOwner(address)":"8462151c","totalSupply()":"18160ddd","transferFrom(address,address,uint256)":"23b872dd","transferOwnership(address)":"f2fde38b"}}}}}