{
  "_format": "hh-sol-artifact-1",
  "contractName": "BookNFT",
  "sourceName": "contracts/BookNFT.sol",
  "abi": [
    {
      "inputs": [],
      "stateMutability": "nonpayable",
      "type": "constructor"
    },
    {
      "inputs": [],
      "name": "ERC721EnumerableForbiddenBatchMint",
      "type": "error"
    },
    {
      "inputs": [
        {
          "internalType": "address",
          "name": "sender",
          "type": "address"
        },
        {
          "internalType": "uint256",
          "name": "tokenId",
          "type": "uint256"
        },
        {
          "internalType": "address",
          "name": "owner",
          "type": "address"
        }
      ],
      "name": "ERC721IncorrectOwner",
      "type": "error"
    },
    {
      "inputs": [
        {
          "internalType": "address",
          "name": "operator",
          "type": "address"
        },
        {
          "internalType": "uint256",
          "name": "tokenId",
          "type": "uint256"
        }
      ],
      "name": "ERC721InsufficientApproval",
      "type": "error"
    },
    {
      "inputs": [
        {
          "internalType": "address",
          "name": "approver",
          "type": "address"
        }
      ],
      "name": "ERC721InvalidApprover",
      "type": "error"
    },
    {
      "inputs": [
        {
          "internalType": "address",
          "name": "operator",
          "type": "address"
        }
      ],
      "name": "ERC721InvalidOperator",
      "type": "error"
    },
    {
      "inputs": [
        {
          "internalType": "address",
          "name": "owner",
          "type": "address"
        }
      ],
      "name": "ERC721InvalidOwner",
      "type": "error"
    },
    {
      "inputs": [
        {
          "internalType": "address",
          "name": "receiver",
          "type": "address"
        }
      ],
      "name": "ERC721InvalidReceiver",
      "type": "error"
    },
    {
      "inputs": [
        {
          "internalType": "address",
          "name": "sender",
          "type": "address"
        }
      ],
      "name": "ERC721InvalidSender",
      "type": "error"
    },
    {
      "inputs": [
        {
          "internalType": "uint256",
          "name": "tokenId",
          "type": "uint256"
        }
      ],
      "name": "ERC721NonexistentToken",
      "type": "error"
    },
    {
      "inputs": [
        {
          "internalType": "address",
          "name": "owner",
          "type": "address"
        },
        {
          "internalType": "uint256",
          "name": "index",
          "type": "uint256"
        }
      ],
      "name": "ERC721OutOfBoundsIndex",
      "type": "error"
    },
    {
      "inputs": [
        {
          "internalType": "address",
          "name": "owner",
          "type": "address"
        }
      ],
      "name": "OwnableInvalidOwner",
      "type": "error"
    },
    {
      "inputs": [
        {
          "internalType": "address",
          "name": "account",
          "type": "address"
        }
      ],
      "name": "OwnableUnauthorizedAccount",
      "type": "error"
    },
    {
      "inputs": [
        {
          "internalType": "uint256",
          "name": "value",
          "type": "uint256"
        },
        {
          "internalType": "uint256",
          "name": "length",
          "type": "uint256"
        }
      ],
      "name": "StringsInsufficientHexLength",
      "type": "error"
    },
    {
      "anonymous": false,
      "inputs": [
        {
          "indexed": true,
          "internalType": "address",
          "name": "owner",
          "type": "address"
        },
        {
          "indexed": true,
          "internalType": "address",
          "name": "approved",
          "type": "address"
        },
        {
          "indexed": true,
          "internalType": "uint256",
          "name": "tokenId",
          "type": "uint256"
        }
      ],
      "name": "Approval",
      "type": "event"
    },
    {
      "anonymous": false,
      "inputs": [
        {
          "indexed": true,
          "internalType": "address",
          "name": "owner",
          "type": "address"
        },
        {
          "indexed": true,
          "internalType": "address",
          "name": "operator",
          "type": "address"
        },
        {
          "indexed": false,
          "internalType": "bool",
          "name": "approved",
          "type": "bool"
        }
      ],
      "name": "ApprovalForAll",
      "type": "event"
    },
    {
      "anonymous": false,
      "inputs": [
        {
          "indexed": true,
          "internalType": "address",
          "name": "previousOwner",
          "type": "address"
        },
        {
          "indexed": true,
          "internalType": "address",
          "name": "newOwner",
          "type": "address"
        }
      ],
      "name": "OwnershipTransferred",
      "type": "event"
    },
    {
      "anonymous": false,
      "inputs": [
        {
          "indexed": true,
          "internalType": "address",
          "name": "from",
          "type": "address"
        },
        {
          "indexed": true,
          "internalType": "address",
          "name": "to",
          "type": "address"
        },
        {
          "indexed": true,
          "internalType": "uint256",
          "name": "tokenId",
          "type": "uint256"
        }
      ],
      "name": "Transfer",
      "type": "event"
    },
    {
      "inputs": [
        {
          "internalType": "address",
          "name": "to",
          "type": "address"
        },
        {
          "internalType": "uint256",
          "name": "tokenId",
          "type": "uint256"
        }
      ],
      "name": "approve",
      "outputs": [],
      "stateMutability": "nonpayable",
      "type": "function"
    },
    {
      "inputs": [
        {
          "internalType": "address",
          "name": "owner",
          "type": "address"
        }
      ],
      "name": "balanceOf",
      "outputs": [
        {
          "internalType": "uint256",
          "name": "",
          "type": "uint256"
        }
      ],
      "stateMutability": "view",
      "type": "function"
    },
    {
      "inputs": [
        {
          "internalType": "uint256",
          "name": "tokenId",
          "type": "uint256"
        }
      ],
      "name": "getApproved",
      "outputs": [
        {
          "internalType": "address",
          "name": "",
          "type": "address"
        }
      ],
      "stateMutability": "view",
      "type": "function"
    },
    {
      "inputs": [
        {
          "internalType": "uint256",
          "name": "tokenId",
          "type": "uint256"
        }
      ],
      "name": "getBook",
      "outputs": [
        {
          "components": [
            {
              "internalType": "string",
              "name": "title",
              "type": "string"
            },
            {
              "internalType": "string",
              "name": "author",
              "type": "string"
            },
            {
              "internalType": "uint256",
              "name": "pages",
              "type": "uint256"
            },
            {
              "internalType": "string",
              "name": "coverUrl",
              "type": "string"
            },
            {
              "internalType": "address",
              "name": "reader",
              "type": "address"
            },
            {
              "internalType": "uint256",
              "name": "timestamp",
              "type": "uint256"
            }
          ],
          "internalType": "struct BookNFT.Book",
          "name": "",
          "type": "tuple"
        }
      ],
      "stateMutability": "view",
      "type": "function"
    },
    {
      "inputs": [
        {
          "internalType": "address",
          "name": "owner",
          "type": "address"
        },
        {
          "internalType": "address",
          "name": "operator",
          "type": "address"
        }
      ],
      "name": "isApprovedForAll",
      "outputs": [
        {
          "internalType": "bool",
          "name": "",
          "type": "bool"
        }
      ],
      "stateMutability": "view",
      "type": "function"
    },
    {
      "inputs": [
        {
          "internalType": "string",
          "name": "title",
          "type": "string"
        },
        {
          "internalType": "string",
          "name": "author",
          "type": "string"
        },
        {
          "internalType": "uint256",
          "name": "pages",
          "type": "uint256"
        },
        {
          "internalType": "string",
          "name": "coverUrl",
          "type": "string"
        }
      ],
      "name": "mintBook",
      "outputs": [
        {
          "internalType": "uint256",
          "name": "tokenId",
          "type": "uint256"
        }
      ],
      "stateMutability": "nonpayable",
      "type": "function"
    },
    {
      "inputs": [],
      "name": "name",
      "outputs": [
        {
          "internalType": "string",
          "name": "",
          "type": "string"
        }
      ],
      "stateMutability": "view",
      "type": "function"
    },
    {
      "inputs": [],
      "name": "owner",
      "outputs": [
        {
          "internalType": "address",
          "name": "",
          "type": "address"
        }
      ],
      "stateMutability": "view",
      "type": "function"
    },
    {
      "inputs": [
        {
          "internalType": "uint256",
          "name": "tokenId",
          "type": "uint256"
        }
      ],
      "name": "ownerOf",
      "outputs": [
        {
          "internalType": "address",
          "name": "",
          "type": "address"
        }
      ],
      "stateMutability": "view",
      "type": "function"
    },
    {
      "inputs": [],
      "name": "renounceOwnership",
      "outputs": [],
      "stateMutability": "nonpayable",
      "type": "function"
    },
    {
      "inputs": [
        {
          "internalType": "address",
          "name": "from",
          "type": "address"
        },
        {
          "internalType": "address",
          "name": "to",
          "type": "address"
        },
        {
          "internalType": "uint256",
          "name": "tokenId",
          "type": "uint256"
        }
      ],
      "name": "safeTransferFrom",
      "outputs": [],
      "stateMutability": "nonpayable",
      "type": "function"
    },
    {
      "inputs": [
        {
          "internalType": "address",
          "name": "from",
          "type": "address"
        },
        {
          "internalType": "address",
          "name": "to",
          "type": "address"
        },
        {
          "internalType": "uint256",
          "name": "tokenId",
          "type": "uint256"
        },
        {
          "internalType": "bytes",
          "name": "data",
          "type": "bytes"
        }
      ],
      "name": "safeTransferFrom",
      "outputs": [],
      "stateMutability": "nonpayable",
      "type": "function"
    },
    {
      "inputs": [
        {
          "internalType": "address",
          "name": "operator",
          "type": "address"
        },
        {
          "internalType": "bool",
          "name": "approved",
          "type": "bool"
        }
      ],
      "name": "setApprovalForAll",
      "outputs": [],
      "stateMutability": "nonpayable",
      "type": "function"
    },
    {
      "inputs": [
        {
          "internalType": "bytes4",
          "name": "interfaceId",
          "type": "bytes4"
        }
      ],
      "name": "supportsInterface",
      "outputs": [
        {
          "internalType": "bool",
          "name": "",
          "type": "bool"
        }
      ],
      "stateMutability": "view",
      "type": "function"
    },
    {
      "inputs": [],
      "name": "symbol",
      "outputs": [
        {
          "internalType": "string",
          "name": "",
          "type": "string"
        }
      ],
      "stateMutability": "view",
      "type": "function"
    },
    {
      "inputs": [
        {
          "internalType": "uint256",
          "name": "index",
          "type": "uint256"
        }
      ],
      "name": "tokenByIndex",
      "outputs": [
        {
          "internalType": "uint256",
          "name": "",
          "type": "uint256"
        }
      ],
      "stateMutability": "view",
      "type": "function"
    },
    {
      "inputs": [
        {
          "internalType": "address",
          "name": "owner",
          "type": "address"
        },
        {
          "internalType": "uint256",
          "name": "index",
          "type": "uint256"
        }
      ],
      "name": "tokenOfOwnerByIndex",
      "outputs": [
        {
          "internalType": "uint256",
          "name": "",
          "type": "uint256"
        }
      ],
      "stateMutability": "view",
      "type": "function"
    },
    {
      "inputs": [
        {
          "internalType": "uint256",
          "name": "tokenId",
          "type": "uint256"
        }
      ],
      "name": "tokenURI",
      "outputs": [
        {
          "internalType": "string",
          "name": "",
          "type": "string"
        }
      ],
      "stateMutability": "view",
      "type": "function"
    },
    {
      "inputs": [
        {
          "internalType": "address",
          "name": "owner",
          "type": "address"
        }
      ],
      "name": "tokensOfOwner",
      "outputs": [
        {
          "internalType": "uint256[]",
          "name": "",
          "type": "uint256[]"
        }
      ],
      "stateMutability": "view",
      "type": "function"
    },
    {
      "inputs": [],
      "name": "totalSupply",
      "outputs": [
        {
          "internalType": "uint256",
          "name": "",
          "type": "uint256"
        }
      ],
      "stateMutability": "view",
      "type": "function"
    },
    {
      "inputs": [
        {
          "internalType": "address",
          "name": "from",
          "type": "address"
        },
        {
          "internalType": "address",
          "name": "to",
          "type": "address"
        },
        {
          "internalType": "uint256",
          "name": "tokenId",
          "type": "uint256"
        }
      ],
      "name": "transferFrom",
      "outputs": [],
      "stateMutability": "nonpayable",
      "type": "function"
    },
    {
      "inputs": [
        {
          "internalType": "address",
          "name": "newOwner",
          "type": "address"
        }
      ],
      "name": "transferOwnership",
      "outputs": [],
      "stateMutability": "nonpayable",
      "type": "function"
    }
  ],
  "bytecode": "0x6080346200039a576001600160401b0390604081810183811183821017620003845781526007825260209266109bdbdad3919560ca1b84840152815190828201828110828211176200038457835260049182815263424f4f4b60e01b868201528451908282116200036f576000968754926001978885811c9516801562000364575b8386101462000351578190601f95868111620002fe575b5083908683116001146200029a578b926200028e575b5050600019600383901b1c191690881b1788555b81519384116200027b5786548781811c9116801562000270575b828210146200025d57908184869594931162000206575b50809284116001146200019e5750879262000192575b5050600019600383901b1c191690841b1783555b33156200017d5750600a8054336001600160a01b03198216811790925591519390916001600160a01b0316907f8be0079c531659141344cd1fd0a4f28419497f9722a3daafe3b4186f6b6457e09080a3600c556123eb9081620003a08239f35b836024925191631e4fbdf760e01b8352820152fd5b01519050388062000109565b9190879450601f198416858a52838a20938a905b828210620001ec5750508411620001d2575b505050811b0183556200011d565b015160001960f88460031b161c19169055388080620001c4565b8484015186558a97909501949384019390810190620001b2565b90919293508789528189208480870160051c82019284881062000253575b9187968b92969594930160051c01915b82811062000244575050620000f3565b8b81558796508a910162000234565b9250819262000224565b634e487b7160e01b895260228652602489fd5b90607f1690620000dc565b634e487b7160e01b885260418552602488fd5b015190503880620000ae565b8b8052848c208b94509190601f1984168d5b87828210620002e75750508411620002cd575b505050811b018855620000c2565b015160001960f88460031b161c19169055388080620002bf565b8385015186558e97909501949384019301620002ac565b9091508a8052838b208680850160051c82019286861062000347575b918c91869594930160051c01915b8281106200033857505062000098565b8d81558594508c910162000328565b925081926200031a565b634e487b7160e01b8a526022875260248afd5b94607f169462000081565b604184634e487b7160e01b6000525260246000fd5b634e487b7160e01b600052604160045260246000fd5b600080fdfe608080604052600436101561001357600080fd5b60003560e01c90816301ffc9a7146116ed5750806306fdde031461164a578063081812fc1461160c578063095ea7b31461152557806318160ddd1461150757806323b872dd146114f05780632f745c59146114c957806342842e0e1461149b5780634f6ccce7146114455780636352211e1461141557806370a08231146113ea578063715018a61461138d5780638462151c146112ac5780638da5cb5b1461128357806395d89b41146111a4578063a139d3d01461093e578063a22cb46514610899578063b88d4fde1461082c578063c87b56dd1461032d578063e0ff5b8b146101f5578063e985e9c51461019f5763f2fde38b1461011157600080fd5b3461019a57602036600319011261019a5761012a6117ba565b6101326118e2565b6001600160a01b0390811690811561018157600a54826001600160601b0360a01b821617600a55167f8be0079c531659141344cd1fd0a4f28419497f9722a3daafe3b4186f6b6457e0600080a3005b604051631e4fbdf760e01b815260006004820152602490fd5b600080fd5b3461019a57604036600319011261019a576101b86117ba565b6101c06117d0565b9060018060a01b03809116600052600560205260406000209116600052602052602060ff604060002054166040519015158152f35b3461019a5760208060031936011261019a57600435906040516102178161181b565b600060a0606092838152838582015282604082015283808201528260808201520152826000526002825260018060a01b039261025b84604060002054161515611ee8565b600052600b8252604060002090604051936102758561181b565b61027e83611981565b855261031b61028f60018501611981565b858701908152600285015490604088019182526102ae60038701611981565b8589019081526005856004890154169760808b0198895201549560a08a019687526103056102ef8a60c06040519d8e9d8e5251918d015260e08c0190611795565b935193601f1994858c83030160408d0152611795565b9351908901525190878303016080880152611795565b92511660a08401525160c08301520390f35b3461019a5760208060031936011261019a5760043560008181526002835260409020546001600160a01b03906103669082161515611ee8565b81600052600b8352604060002091604051926103818461181b565b61038a81611981565b845261039860018201611981565b9185850192835260028201549160408601928352600381016103b990611981565b9360608701948552856004830154169160808801928352600501549260a088019384526103e590612069565b60405180918a820165426f6f6b202360d01b9052805190818c6026850192019161040e92611772565b8101036006810182526026016104249082611851565b61042d906122b1565b958083511661043b906121ac565b60405180918b82017102137b7b59031b7b63632b1ba32b210313c960751b9052805190818d6032850192019161047092611772565b8101036012810182526032016104869082611851565b61048f906122b1565b955161049a906122b1565b97516104a5906122b1565b91516104b0906122b1565b94516104bb90612069565b9251166104c7906121ac565b92516104d290612069565b946040519788978a8901607b60f81b905267113730b6b2911d1160c11b60218a0152805190818c60298c0192019161050992611772565b88019161088b60f21b928360298201526e113232b9b1b934b83a34b7b7111d1160891b602b820152815191828d603a840192019161054692611772565b0182603a820152681134b6b0b3b2911d1160b91b603c820152815191828c6045840192019161057492611772565b019060458201526d2261747472696275746573223a5b60901b6047820152605581017f7b2274726169745f74797065223a225469746c65222c2276616c7565223a22009052815191828a607484019201916105ce92611772565b019262089f4b60ea1b93846074820152607781017f7b2274726169745f74797065223a22417574686f72222c2276616c7565223a229052815191828a6097840192019161061a92611772565b01836097820152609a81017f7b2274726169745f74797065223a225061676573222c2276616c7565223a22009052815191828960b9840192019161065d92611772565b018260b982015260bc81017f7b2274726169745f74797065223a22526561646572222c2276616c7565223a229052815191828860dc84019201916106a092611772565b019060dc82015260df81017f7b22646973706c61795f74797065223a2264617465222c2274726169745f74799052743832911d1126b4b73a32b21116113b30b63ab2911d60591b60ff82015281519061011492828785840192019161070492611772565b0190607d60f81b80918301526101158201605d60f81b90526101168201520360f781018252610117016107379082611851565b60405160608101918183106001600160401b03841117610816576107ac92604052604082527f4142434445464748494a4b4c4d4e4f505152535455565758595a616263646566848301527f6768696a6b6c6d6e6f707172737475767778797a303132333435363738392b2f6040830152611f71565b906107fe603d60405180947f646174613a6170706c69636174696f6e2f6a736f6e3b6261736536342c000000858301526107ee81518092878686019101611772565b810103601d810185520183611851565b610812604051928284938452830190611795565b0390f35b634e487b7160e01b600052604160045260246000fd5b3461019a57608036600319011261019a576108456117ba565b61084d6117d0565b90604435606435926001600160401b03841161019a573660238501121561019a5761088561089794369060248160040135910161188d565b92610891838383611a27565b33611d8b565b005b3461019a57604036600319011261019a576108b26117ba565b6024359081151580920361019a576001600160a01b031690811561092557336000526005602052604060002082600052602052604060002060ff1981541660ff83161790556040519081527f17307eab39ab6107e8899845ad3d59bd9653f200f220920489ca2b5937696c3160203392a3005b604051630b61174360e31b815260048101839052602490fd5b3461019a57608036600319011261019a576004356001600160401b03811161019a5761096e9036906004016118c4565b6024356001600160401b03811161019a5761098d9036906004016118c4565b906064356001600160401b03811161019a576109ad9036906004016118c4565b81511561116e5782511561113757604435156110fe57600c54926109d084611ed9565b600c556040516109df81611836565b6000815233156110e5576000858152600260205260409020546001600160a01b0316806110ae575b3360005260036020526040600020600181540190558560005260026020526040600020336001600160601b0360a01b8254161790558533827fddf252ad1be2c89b69c2b068fc378daa952ba7f163c4a11628f55a4df523b3ef600080a4806110275760085486600052600960205280604060002055600160401b8110156108165786610a9c826001610ab59401600855611d54565b90919082549060031b91821b91600019901b1916179055565b338103610fc5575b610fac57333b610e96575b5060405192610ad68461181b565b83526020830152604435604083015260608201523360808201524260a082015281600052600b60205260406000209080519283516001600160401b03811161081657610b228454611947565b601f8111610e52575b506020601f8211600114610de9578192939495600092610dde575b50508160011b916000199060031b1c19161783555b60208201519283516001600160401b03811161081657610b7e6001830154611947565b601f8111610d97575b506020601f8211600114610d28578192939495600092610d1d575b50508160011b916000199060031b1c19161760018201555b6040830151600282015560608301519283516001600160401b03811161081657610be76003840154611947565b94601f8611610cd6575b602095508590601f8311600114610c635791806005949260a094600092610c58575b50508160011b916000199060031b1c19161760038501555b60048401600180841b036080830151166001600160601b03841b8254161790550151910155604051908152f35b015190508880610c13565b9060038501600052866000209160005b601f1985168110610cbf5750926005949260019260a09583601f19811610610ca6575b505050811b016003850155610c2b565b015160001960f88460031b161c19169055888080610c96565b919288600181928685015181550194019201610c73565b600384016000526020600020601f830160051c810160208410610d16575b601f880160051c82018110610d0a575050610bf1565b60008155600101610cf4565b5080610cf4565b015190508580610ba2565b6001830160005260206000209060005b601f1984168110610d7f575060019394959683601f19811610610d66575b505050811b016001820155610bba565b015160001960f88460031b161c19169055858080610d56565b9091602060018192858b015181550193019101610d38565b600183016000526020600020601f830160051c810160208410610dd7575b601f830160051c82018110610dcb575050610b87565b60008155600101610db5565b5080610db5565b015190508580610b46565b8460005260206000209060005b601f1984168110610e3a575060019394959683601f19811610610e21575b505050811b018355610b5b565b015160001960f88460031b161c19169055858080610e14565b9091602060018192858b015181550193019101610df6565b846000526020600020601f830160051c810160208410610e8f575b601f830160051c82018110610e83575050610b2b565b60008155600101610e6d565b5080610e6d565b60405160208180610ed0630a85bd0160e11b95868352336004840152600060248401528a6044840152608060648401526084830190611795565b03816000335af160009181610f67575b50610f3a573d15610f33573d610ef581611872565b90610f036040519283611851565b81523d6000602083013e5b80519081610f2e57604051633250574960e11b8152336004820152602490fd5b602001fd5b6060610f0e565b6001600160e01b03191603610f4f5784610ac8565b604051633250574960e11b8152336004820152602490fd5b9091506020813d602011610fa4575b81610f8360209383611851565b8101031261019a57516001600160e01b03198116810361019a579087610ee0565b3d9150610f76565b6040516339e3563760e11b815260006004820152602490fd5b610fce3361190e565b8060001981011161101157336000526006602052604060002060001982016000526020528660406000205586600052600760205260001901604060002055610abd565b634e487b7160e01b600052601160045260246000fd5b338114610ab5576110378161190e565b86600052600760205260406000205490826000526006602052604060002091818103611081575b508760005260076020526000604081205560005260205260006040812055610ab5565b8160005282602052604060002054816000528060406000205560005260076020526040600020558861105e565b600086815260046020526040902080546001600160a01b031916905580600052600360205260406000206000198154019055610a07565b604051633250574960e11b815260006004820152602490fd5b60405162461bcd60e51b815260206004820152601160248201527005061676573206d757374206265203e203607c1b6044820152606490fd5b60405162461bcd60e51b815260206004820152600f60248201526e105d5d1a1bdc881c995c5d5a5c9959608a1b6044820152606490fd5b60405162461bcd60e51b815260206004820152600e60248201526d151a5d1b19481c995c5d5a5c995960921b6044820152606490fd5b3461019a57600036600319011261019a57604051600060018054906111c882611947565b8085529181811690811561125c5750600114611203575b610812846111ef81860382611851565b604051918291602083526020830190611795565b600081815292507fb10e2d527612073b26eecdfd717e6a320cf44b4afac2b0732d9fcbe2b7fa0cf65b8284106112445750505081016020016111ef826111df565b8054602085870181019190915290930192810161122c565b60ff191660208087019190915292151560051b850190920192506111ef91508390506111df565b3461019a57600036600319011261019a57600a546040516001600160a01b039091168152602090f35b3461019a5760208060031936011261019a576112c66117ba565b6112cf8161190e565b6112d881611f28565b906112e66040519283611851565b8082526112f281611f28565b8285019390601f190136853760005b82811061134c5750505090604051928392818401908285525180915260408401929160005b82811061133557505050500390f35b835185528695509381019392810192600101611326565b6113568183611cf4565b9084518110156113775761137291878260051b87010152611ed9565b611301565b634e487b7160e01b600052603260045260246000fd5b3461019a57600036600319011261019a576113a66118e2565b600a80546001600160a01b031981169091556000906001600160a01b03167f8be0079c531659141344cd1fd0a4f28419497f9722a3daafe3b4186f6b6457e08280a3005b3461019a57602036600319011261019a57602061140d6114086117ba565b61190e565b604051908152f35b3461019a57602036600319011261019a576020611433600435611cb9565b6040516001600160a01b039091168152f35b3461019a57602036600319011261019a5760043560085481101561147c5761146e602091611d54565b90546040519160031b1c8152f35b6044906040519063295f44f760e21b8252600060048301526024820152fd5b3461019a576108976114ac366117e6565b90604051926114ba84611836565b60008452610891838383611a27565b3461019a57604036600319011261019a57602061140d6114e76117ba565b60243590611cf4565b3461019a57610897611501366117e6565b91611a27565b3461019a57600036600319011261019a576020600854604051908152f35b3461019a57604036600319011261019a5761153e6117ba565b60243561154a81611cb9565b331515806115f9575b806115cc575b6115b4576001600160a01b039283169282918491167f8c5be1e5ebec7d5bd14f71427d1e84f3dd0314c0f7b2291e5b200ac8c7c3b925600080a4600090815260046020526040902080546001600160a01b0319169091179055005b60405163a9fbf51f60e01b8152336004820152602490fd5b5060018060a01b038116600052600560205260406000203360005260205260ff6040600020541615611559565b506001600160a01b038116331415611553565b3461019a57602036600319011261019a5760043561162981611cb9565b506000526004602052602060018060a01b0360406000205416604051908152f35b3461019a57600036600319011261019a576040516000805461166b81611947565b8084529060019081811690811561125c575060011461169457610812846111ef81860382611851565b600080805292507f290decd9548b62a8d60345a988386fc84ba6bc95484008f6362f93160ef3e5635b8284106116d55750505081016020016111ef826111df565b805460208587018101919091529093019281016116bd565b3461019a57602036600319011261019a576004359063ffffffff60e01b821680920361019a5760209163780e9d6360e01b811490811561172f575b5015158152f35b6380ac58cd60e01b811491508115611761575b8115611750575b5083611728565b6301ffc9a760e01b14905083611749565b635b5e139f60e01b81149150611742565b60005b8381106117855750506000910152565b8181015183820152602001611775565b906020916117ae81518092818552858086019101611772565b601f01601f1916010190565b600435906001600160a01b038216820361019a57565b602435906001600160a01b038216820361019a57565b606090600319011261019a576001600160a01b0390600435828116810361019a5791602435908116810361019a579060443590565b60c081019081106001600160401b0382111761081657604052565b602081019081106001600160401b0382111761081657604052565b90601f801991011681019081106001600160401b0382111761081657604052565b6001600160401b03811161081657601f01601f191660200190565b92919261189982611872565b916118a76040519384611851565b82948184528183011161019a578281602093846000960137010152565b9080601f8301121561019a578160206118df9335910161188d565b90565b600a546001600160a01b031633036118f657565b60405163118cdaa760e01b8152336004820152602490fd5b6001600160a01b0316801561192e57600052600360205260406000205490565b6040516322718ad960e21b815260006004820152602490fd5b90600182811c92168015611977575b602083101461196157565b634e487b7160e01b600052602260045260246000fd5b91607f1691611956565b906040519182600082549261199584611947565b908184526001948581169081600014611a0457506001146119c1575b50506119bf92500383611851565b565b9093915060005260209081600020936000915b8183106119ec5750506119bf935082010138806119b1565b855488840185015294850194879450918301916119d4565b9150506119bf94506020925060ff191682840152151560051b82010138806119b1565b6001600160a01b03828116939184156110e557600094838652602095600287526040968488832054169633151580611c2b575b5087158015611bf8575b84845260038352898420805460010190558784526002835289842080546001600160a01b0319168617905587858a7fddf252ad1be2c89b69c2b068fc378daa952ba7f163c4a11628f55a4df523b3ef8780a415611b8c5760085487845260098352808a852055600160401b811015611b785787610a9c826001611aea9401600855611d54565b838803611b26575b505050501692838303611b055750505050565b6064945051926364283d7b60e01b8452600484015260248301526044820152fd5b611b2f9061190e565b600019810193908411611b645782916007918a9452600681528383208584528152878484205587835252205538808080611af2565b634e487b7160e01b83526011600452602483fd5b634e487b7160e01b84526041600452602484fd5b878414611aea57611b9c8861190e565b878452600783528984205490898552600684528a852091818103611bd6575b5088855260078452848b812055845282528289812055611aea565b8186528285528b862054818752808d8820558652600785528b86205538611bbb565b600088815260046020526040902080546001600160a01b0319169055888452600383528984208054600019019055611a64565b80611c78575b15611c3c5738611a5a565b888789611c59576024915190637e27328960e01b82526004820152fd5b905163177e802f60e01b81523360048201526024810191909152604490fd5b503388148015611c9d575b80611c3157508683526004825233868a8520541614611c31565b5087835260058252888320338452825260ff8984205416611c83565b6000818152600260205260409020546001600160a01b0316908115611cdc575090565b60249060405190637e27328960e01b82526004820152fd5b611cfd8161190e565b821015611d295760018060a01b0316600052600660205260406000209060005260205260406000205490565b60405163295f44f760e21b81526001600160a01b039190911660048201526024810191909152604490fd5b6008548110156113775760086000527ff3f7a9fe364faab93b216da50a3214154f22a0a2b415b23a84c8169e8b636ee30190600090565b90939192833b611d9d575b5050505050565b604051630a85bd0160e11b8082526001600160a01b039384166004830152958316602482015260448101919091526080606482015294921692602092918590611dea906084830190611795565b039483816000978189895af1869181611e95575b50611e5f575050503d600014611e56573d611e1881611872565b90611e266040519283611851565b81528093823d92013e5b82519283611e5157604051633250574960e11b815260048101849052602490fd5b019050fd5b60609250611e30565b919450915063ffffffff60e01b1603611e7d57503880808080611d96565b60249060405190633250574960e11b82526004820152fd5b9091508481813d8311611ed2575b611ead8183611851565b81010312611ece57516001600160e01b031981168103611ece579038611dfe565b8680fd5b503d611ea3565b60001981146110115760010190565b15611eef57565b60405162461bcd60e51b81526020600482015260116024820152702737b732bc34b9ba32b73a103a37b5b2b760791b6044820152606490fd5b6001600160401b0381116108165760051b60200190565b90611f4982611872565b611f566040519182611851565b8281528092611f67601f1991611872565b0190602036910137565b805115612054578051600291828201809211611011576003918290046001600160fe1b038116810361101157611faa908495941b611f3f565b936020850193829183518401906020820192835194600085525b838110612003575050505052510680600114611ff057600214611fe5575090565b603d90600019015390565b50603d9081600019820153600119015390565b87600491999293949901918251600190603f9082828260121c16880101518453828282600c1c16880101518385015382828260061c1688010151888501531685010151898201530197929190611fc4565b505060405161206281611836565b6000815290565b806000917a184f03e93ff9f4daa797ed6e38ed64bf6a1f0100000000000000008082101561219e575b506d04ee2d6d415b85acef81000000008083101561218f575b50662386f26fc1000080831015612180575b506305f5e10080831015612171575b5061271080831015612162575b506064821015612152575b600a80921015612148575b600190816021612100828701611f3f565b95860101905b612112575b5050505090565b600019019083906f181899199a1a9b1b9c1cb0b131b232b360811b8282061a83530491821561214357919082612106565b61210b565b91600101916120ef565b91906064600291049101916120e4565b600491939204910191386120d9565b600891939204910191386120cc565b601091939204910191386120bd565b602091939204910191386120ab565b604093508104915038612092565b604051906001600160a01b031680606083016001600160401b0381118482101761081657604052602a83526020830160403682378351156113775760309053825160019081101561137757607860218501536029905b808211612232575050612213575090565b6044906040519063e22e27eb60e01b8252600482015260146024820152fd5b9091600f8116601081101561228b576f181899199a1a9b1b9c1cb0b131b232b360811b901a61226184876122a0565b5360041c918015612276576000190190612202565b60246000634e487b7160e01b81526011600452fd5b60246000634e487b7160e01b81526032600452fd5b908151811015611377570160200190565b9081519160019280841b9080820460021490151715611011576122d390611f3f565b9260009182825b61232e575b5050506122eb81611f3f565b9060005b8181106122fd575090925050565b612329906001600160f81b031961231482886122a0565b511660001a61232382866122a0565b53611ed9565b6122ef565b81518110156123b057612391906001600160f81b031961234e82856122a0565b511694601160f91b861480156123a3575b1561239757605c61237961237283611ed9565b928a6122a0565b5361232361238682611ed9565b9660001a91896122a0565b826122da565b61232361238682611ed9565b50601760fa1b861461235f565b6122df56fea26469706673582212204b01e5d543e7bf646e10d50eaf5de44ddd047864b16c0e493267e2ecfcc9ba2f64736f6c63430008140033",
  "linkReferences": {},
  "deployedLinkReferences": {}
}